:200000000040002009BF000001C9011001C9011001C9011001C9011001C9011001C9011096
:1C00200001C9011001C9011001C9011001C9011001C9011001C901103FC9011089
:20003C002DE9F04F614C04F12C012046ADF1440D0BF0BCFC0025A84648A04FF4D171009563
:20005C000122109049A3CDF8048008F069FF04F1540630464146A56300F00AFD40462663D2
:20007C000EF0E4F9E06140460EF026F8206206F01FFA0EF0D5FA414604F1440001600127FF
:20009C008DF835700DF13502ADF81E8040463946A06440F2053002F095FF40F20630022121
:2000BC000DF11E0202F08EFF651C4FF4427039462A4602F087FF04F1600640F207300E21B7
:2000DC00324602F07FFF4FF416738DF836704FF4C870ADF824803946ADF822300DF13602B5
:2000FC00ADF820004FF47A734FF44470ADF8263002F068FF40F21130022108AA02F062FF09
:20011C0040F2123002210DF1220202F05BFF40F21330022109AA02F055FF4FF44570022112
:20013C000DF1260202F04EFF04F18300414620220AF016F85F35233640462A5C401CC0B22E
:20015C0029180B78092B18BF082B01D11F2A2FDB8018C0B22028F0DB2FE0C04670726F6A6F
:20017C006563745F7A65726F2E6300C0496E697469616C697A696E672074686520757365FE
:20019C0072207461736B2C2068617264776172652C20424C4520737461636B20616E64209C
:2001BC0073657276696365732E00C046C0070020491C521E304608F09DFF1098009640F255
:2001DC00ED113A4687A3CDF8048008F0A9FE8F4D102006224FF44873294605F04BFD102065
:2001FC0007224FF44873294605F044FD102008224FF44873294605F03DFD102009224FF483
:20021C004873294605F036FD10203A461E23294605F030FDCDF81480B9468DF8377005A8BD
:20023C008DF839804FF481628DF8389004238DF83A90D24D00901020294605F01BFD0DF122
:20025C0037004FF480623B4600902946102005F011FD0EA80090294640F202423B46102097
:20027C0005F008FD0DF13900294640F203423B460090102005F0FEFC0DF13A00294640F242
:20029C0006423B460090102005F0F4FCC54910204FF0FF3205F0EEFCC34910204FF0FF329B
:2002BC0005F0E8FCDFF804A310201323C04FC14A00905146019705F0DDFC04F16E004246D3
:2002DC001523CD490090102005F0D4FCD04E307880000EF0A9FBCF4D0146A96019B34FF6CA
:2002FC00FF700CF053FC307880000EF09DFB01462961C1B14FF6FF700CF048FC307880000B
:20031C000EF092FB0146A96169B14FF6FF700CF03DFCC149102005F11C0200900A23019145
:20033C00514605F0A7FC0AA84146042209F018FF40460AA90BF0ACFF0BA84146042209F0CB
:20035C000FFF48460BA90BF0A3FF0CA84146042209F006FF02200CA90BF09AFFC64D6F78D0
:20037C002878AFB904F13C0129620DF01FF805F15407CDF80080024605F14400019005F1E9
:20039C001C060297BD490396AB78102005F072FCBB4904F14C02102005F06CFC20780DF0C8
:2003BC0005F8CE490246102005F064FC20780CF0FDFFCB490246102005F05CFC0CF094FB4C
:2003DC00CB4FC848C849C94DCA4EDFF82CA3A7F11D03016019684560C1F38005002D6DD10F
:2003FC0016E0C0464E616D6520696E20616476657274446174612061727261793A201B5B3E
:20041C0033336D25731B5B306D00C046B1CD0000C149B1E82C105C30A0E82C10B1E82C10BA
:20043C00A0E82C102EC980E82E0006F14905FF23AC48C5F8AB3F0346C16EB3F86A20C5F8E3
:20045C00FF9F5346A3F1EA0008F054FEA548806F804742F22B0042F60B3345F8550CBF4963
:20047C0045F8513C4FF480720A6045F8218C45F83D9CC5F8B39FC5F8F39FD5F8F30F00F0DA
:20049C00FBFAA7F11D02116841F004011160B44A116821F0F05141F03451116000F0F0FAAA
:2004BC00D7F8FF0F0CF0C4FC0EF087FA0EF08EFA0CF0D8FC0EF084FA0EF094FA4846A0611B
:2004DC0000F0DAFAA749A1F10C031A685B68120442EA13420832CA604FF480370F610A688F
:2004FC0042F4A0220A60D1F8F02F22F01F0242F02502C1F8F02F00F0C3FA484608F0ECF81B
:20051C005546E06A984A00214FF0FF3300F0BCFA0028F6D0002004900DA904AA07A80CF00F
:20053C0009FD002840F08F80BDF81C7001208046102F40F0818020789DF8341088427BD113
:20055C00049F38884FF6FF71814275D03B78913B64D01F3B70D1787816282DD038797E288F
:20057C0016D07F280CD00090002040F29231BFA301904246109808F0D3FC36E059390000BF
:20059C003889002240F28D310090C2A30192F0E7387A4FF462710322C5A300900020019077
:2005BC00E8E7C04651D9000001DC000055D500001C020100BC0F00203879002300904FF468
:2005DC005C71022210980193C8A308F0A9FC206CA0B94FF6FD70D849D84A0090002310200D
:2005FC0005F048FBC1B2206C41B1397907F1080000F04EFA20E0C046059D000040F00100F3
:20061C002064404607F08AFA4FF00008676313E0694F002088140020A0FE000078780E28DD
:20063C000AD100200090074640F253314246D6A31098019708F074FC049820B1B8F1000F42
:20065C0001D00EF0A5F9206B00F026FA00287FF458AF206B00F024FA8046014698F8080096
:20067C00C01E00F08781801E58D0401E0AD0801E7CD008386CD080E1D80B00206BC1000094
:20069C0075DE0000206C4008C0F07781676B002F00F07381A07807F10803401CA070B94901
:2006BC0000937A883B79102005F0E4FAC7B2162F24D0206C042F21D030F00100206408D1F2
:2006DC004FF6FD709C499D4A00900123102005F0D1FA384607F022FA4FE1C046518801102B
:2006FC0031810110E015002065E900006FE900002D1009400C500C40EA000E40606B0079B6
:20071C000090A0780190109840F2DB310222A7A308F006FC31E1C04618FF0000C87A01F1D3
:20073C00090700280CBFADA0AFA000900020019010980122AEA34FF4317108F0F1FB0020B8
:20075C000090C5493A880023102005F093FA14E10820002103F03AFF0FE1C04600100E408A
:20077C0000300940142009400F0000C00220306330688008FAD2BA48036807467B602888B2
:20079C00E169226A0DF0ABF90146B4480DF058FE394607460F60C01A606207EB030AC4F89E
:2007BC0028A0F81A0CF0D3FD0FF2882999E80C0006F076FA0F90A0698B460DF083FA024697
:2007DC000F980B46594606F06BFA09F0EDFF8346C4F808B038460CF0BAFD99E80C0006F035
:2007FC005FFA09F0E1FF069058460CF061F993A20CCA06F055FA83460F4650460CF0A7FD7D
:20081C0099E80C0006F04CFA0B4602463946584606F046FA8BA20CCA06F042FA8BA20CCACF
:20083C0006F03EFA09F0C0FF8E49E06001200BF02FFD022006A90BF02BFD6888A988A08022
:20085C000004E18042186261401840000DF0CCF80146774808F08AFF74490AF021FC6FD304
:20087C00714920610AF01CFC70D26BE052656365766965642047415454204D65737361678B
:20089C00652E204F70636F64653A2030782530327800C0464D54552053697A65206368612B
:2008BC006E67653A20256420627974657300C046466C6F7720636F6E74726F6C2076696F8B
:2008DC006C617465642E204F70636F6465206F66206F6666656E64696E6720415454206DEF
:2008FC0073673A2030782530327800C04F7574676F696E67205246204649464F2066756C92
:20091C006C2E2052652D7363686564756C65207472616E736D697373696F6E206F66206D04
:20093C0073672077697468206F70636F64652030782530327800C046D1B6000057E30000BD
:20095C0038482061484900200BF0A2FC4748006E002141800EF034F800F08EF807460EF066
:20097C0041F83C496B202B23087038460B7000F087F802E0487A04F067FD40460CF020F94D
:20099C0061E6C046DDFE001048434920436F6D6D616E6420436F6D706C65746520457665B7
:2009BC006E74207265636569766564005265747279696E67206D6573736167652077697405
:2009DC0068206F70636F6465203078253032782E20417474656D70742025640044697370CC
:2009FC006C6179696E6700C053656E64696E6700426F6E644D6772205265717565737465B8
:200A1C00642070617373636F64652E205765206172652025732070617373636F6465202513
:200A3C0030366400000000000000964400000C42001B374C8DEDB5A0F7C6B03E7B14AE470C
:200A5C00E17A843F000000000000E03F0000000000408F4005500C40B5CF0000E09C41004C
:200A7C0004080020CC070020D0070020E0150020DFF800F0A1B60110DFF800F085BF0110E4
:200A9C00DFF800F061C00110DFF800F0F99B0110DFF800F089840110DFF800F04FBF01100A
:200ABC00DFF800F0F1BF01102DE9F84FD74CA178FF2904BF00200DF077FAA0780DF0F2FC7D
:200ADC00044604F1680504F190062968086810B10021E1830CE0A87B002804BFA97E002932
:200AFC0006D13078002801BF207F0128608CE0832189E08B4118491C6181204600F09AF9BE
:200B1C0001281EBFC2480178012904D121890020491CE08361814FF6FF77A87E01280DD1D5
:200B3C00AA8B6189208900F089F938B1218960894A1C93B298421BD0A88B0FE03078012880
:200B5C0016D172886189208900F078F980B1218960894A1C93B298420AD0708892B2904273
:200B7C0006D03818608180B200F06CF93F18E78304F5967999F8040020B120890021401C76
:200B9C00E183608104F12E07A87E01283ED12289A88B521C92B2904238D1608104F18601A4
:200BBC00204600F053F9A88C608400212177E183E08961894118A181A88B218900F042F96C
:200BDC008046B988288C6A8C01FB0808E88C8A4204BF3989884202BFAB8CF9888B4207D090
:200BFC0000090090AB8CA1795208002000F032F9A87F3870698CB980A88CF8802046E98CD6
:200C1C00398100F02BF90220A87601E0B7F80480B4F81EC022687F4ED2F80CE00CF1010001
:200C3C0000FB08F340F6C41000FB03F18E44C2F80CE03668DFF8E0E13678BEF80080774A56
:200C5C00B609032E11D1D67BF60748BF4FF000080BD408F101081FFA88F6012E12BF668AA2
:200C7C00B9F8066006F2DC5600E0668A5E434FF4C87AB6FBFAF6761C6661AEF80080A361FD
:200C9C004FF0180894F806A084F820C008FB0AFADFF88CC1DCF800E023680EF1080656F886
:200CBC000AB0C3F810B094F806A008FB0AFACDF800A0D3F80CB0D4F814A0ABEB0A0ADDF8BF
:200CDC0000B046F80BA094F806A008FB0AFA56F80A609E600EF10C06A37908FB03F30EF14B
:200CFC000C0EF65C06F0F00646F002060EF803604FF0000ADCF800E0A6790EF1020308FBB6
:200D1C0006F623F806A0474BA6791B68760103F1140AD4F814B05AF806A00AEB4B0A03F177
:200D3C00140B4BF806A0AD7E022D0BD1A5796D0103F1140697F800B056F805A000FB0BAADD
:200D5C0046F805A0BD88D27BA779D60737D508FB07F70EF10802D659A6F5A86A0EF1080606
:200D7C0046F807A0A77908FB07F7D2592768511A3961BA6003F11402A1794901575807F55F
:200D9C00F667575003F11401A27952018958C9F800106843244A156BA779296803F11C06AA
:200DBC007F01401AA0F51670F0512049A07903EB40100B78012B14D10121C17214E003F150
:200DDC0014027F01D1592A464243A1F5E661A2F516729142DDD30821204600F043F80120E8
:200DFC0011E0916A4A78C272A179DCF8000008FB01F281182268516007200D4908702046E2
:200E1C0000F034F80020BDE8F28F00BF684E0020784F0020084F0020B42400205C4D0020A0
:200E3C00804E0020844E0020C8020100734F00206F4F0020DFF800F035440110DFF800F013
:200E5C0069860010DFF800F091860010DFF800F099860010DFF800F049C70010DFF800F0E5
:200E7C00B9860010DFF800F0A9850010DFF800F0498000102DE9FF4104466668A7680D4692
:200E9C000DF0C8FD3178012903D1FFF7F9FD00208EE001213170FFF7F3FD2878707068784A
:200EBC00B07068687060A868B060E868F06028693061287D3075687D7075A87DB075A86905
:200EDC00B061287F3077687F7077A87F4FF0000843461D4686F82851B07786F82951C6F89B
:200EFC002080336375627563B562B56386F82C5086F82D50786807F035FA204608F048F928
:200F1C00204608F091F960B938680CF00BFE786807F010F90DF07EFD3570FFF7B1FD2C46FC
:200F3C0045E068460DF054FB0094387B224A0190B9686B4606F17C000BF08AFA68460DF0C3
:200F5C007FFB00941D4938696A46029006F198000BF016FBB07830B906F1CC0029460CF044
:200F7C00A9FA17483061707830B906F1E80029460CF0A0FA1348F06068460DF0C7FC01955E
:200F9C008DF800501049029406F582700A226B460AF094FCB969FA6906F13C000DF0DCFA92
:200FBC000A4A06F16800042123460CF0B1FB20460090BDE8FF81C0464D620000DBB10000D0
:200FDC0091E9000089E9000039BE00004DE7000008B50AF023F902480121017008BDC04663
:040FFC00C51B0020F1
:20100000B41200001810000015AB0110FDB301106DC00110FDAE011099B5011000000000F7
:08102000000000002D0000009B
:20102800B01200003C100000B1C00110A9BF011067C0011069B80110000000000000000035
:041048003000000074
:20104C00B012000060100000BDC00110CDB30110D9BD01106DB3011000000000000000005B
:04106C00310000004F
:20107000000000002C1B002004000000000000000000000020000000E8C9011030000000E3
:2010900028100000341B00200400000000000000000000000C000000D8CA011018000000BE
:2010B0004C1000003C1B002004000000000000000000000024000000F0CA01101800000042
:2010D00000000000441B00200400000000000000000000001000000018CA01102C0000004E
:2010F00000100000541B0020040000000000000000000000200000006CCA011024000000B2
:20111000FFFFFFFF5C1B00200400000000000000000000002800000090CA01102400000071
:20113000FFFFFFFF641B00200400000000000000000000001400000008CB011018000000F0
:20115000FFFFFFFF6C1B002004000000000000000000000058000000B4C9011034000000BE
:20117000FFFFFFFF741B00200400000000000000000000001000000020CB0110180000008C
:20119000FFFFFFFF7C1B00200400000000000000000000001C000000B4CA011024000000B9
:2011B000FFFFFFFF841B00200400000000000000000000003800000044CA011028000000E1
:2011D000FFFFFFFF8C1B00200400000000000000000000005400000078C901103C00000056
:0811F00002000000680201008A
:0411F80001000000F2
:0411FC0000000E00E1
:0412000000000F00DB
:0412040032000000B4
:0412080001000000E1
:04120C00801A002024
:0412100000020000D8
:0412140000000000D6
:0412180001C90110F7
:04121C0000000000CE
:0412200000000000CA
:0412240008000000BE
:0412280000002200A0
:04122C00D0180020B6
:0412300000000000BA
:0412340000000000B6
:0412380008000000AA
:04123C00401A002034
:0412400000000000AA
:0412440000000000A6
:04124800080000009A
:04124C00000000009E
:04125000000000009A
:041254000000000096
:041258000000000092
:04125C00010000008D
:0412600068190020E9
:041264000600000080
:041268000100000081
:04126C000418002042
:04127000000000007A
:041274000000000076
:041278000002000070
:04127C00000000006E
:02128000290043
:02128200010069
:02128400250043
:02128600300036
:02128800310033
:02128A002D0035
:02128C0001005F
:01128E00015E
:0812900003000000340201001C
:0812980000000000000000004E
:0412A0000000010049
:0412A4000000030043
:0412A80013C401105A
:0412AC0007E4000053
:0412B000B812000070
:0412B400B81200006C
:0412B8000000000032
:0412BC00F41A002000
:0412C000ABE500009A
:0412C4002000000006
:0412C8007C010100A4
:0412CC0068000100B5
:0412D00029C101101F
:0412D400C7D300007C
:0412D80007D9000032
:0412DC00A1C7011095
:0412E000A3C701108F
:0412E4000000000006
:0412E800B70001004A
:0412EC00A4FD00005D
:0412F000BCFD000041
:0412F4008CFD00006D
:0212F8000200F2
:0212FA000900E9
:0212FC000100EF
:0212FE000000EE
:0113000001EB
:0413040039E50000C7
:041308003DCB0000D9
:04130C0071DA000092
:04131000E9CE000022
:0413140083CF000083
:04131800F1BD000023
:04131C00AD98000088
:04132000E1E7000001
:0413240061B40000B0
:0413280015C70110D4
:04132C0025C70110C0
:201330002DE9F84FDFF82885DFF82815DFF8286588F800000822002008600D23DFF81C05EA
:2013500040F22231027043808180DFF814050660B77EDFF810050770FF2FF17E417008BFBF
:20137000FF29327F8270737FC370B57F0571F67F467115D1FF2A08BFFF2B11D1FF2D08BFC2
:20139000FF2E0DD1DFF8E0140A7802704B7843708A788270CB78C3700A7902714979417129
:2013B000DFF8C81402780A70FF2543784B7082788A70C378CB700279DFF8B4340A71407904
:2013D000DFF8B0244871DFF8B0140D704D708D70CD700D714D710021DFF8A0041180466B70
:2013F000DFF89C14707808703278DFF898141A70B0780870B2681079DFF88C24411E117095
:20141000F078DFF88814DFF888240870F068106008B90CF0CFFD3069DFF87844206008B928
:201430000CF0C8FD2068DFF8707401688847226852F8041F38468847DFF86004DFF8601496
:20145000386279627069DFF85C14086008B90CF0B1FDB069DFF85014086008B90CF0AAFDF4
:20147000F069DFF84814086008B90CF0A3FDDFF840B4DFF840649BF804000DF017F9306091
:2014900008B900F043B99BF80500DFF82C740DF00DF9386008B9306835E19BF80600DFF806
:2014B0001C440DF003F9206020B930680DF00EF9386828E19BF80700DFF804940DF0F6F831
:2014D000C9F8000038B930680DF000F938680DF0FDF8206817E1DFF898130A789BF8000013
:2014F000DFF8E0A3921C504380B20DF0DFF8CAF8080058B930680DF0E9F838680DF0E6F86F
:2015100020680DF0E3F8D9F80000FCE0D8480078002800F00081BBF80210DFF8ACB34843F7
:2015300080B20DF0C3F8CBF8040078B930680DF0CDF838680DF0CAF820680DF0C7F8D9F8EB
:2015500000000DF0C3F8DAF80800DCE0C84800780DF0ACF8DD49086080B930680DF0B6F8FA
:2015700038680DF0B3F8D9F800000DF0AFF8DAF808000DF0ABF8DBF80400C4E0BC4800782D
:20159000182148430DF092F8D14A1060B0B930680DF09CF838680DF099F820680DF096F892
:2015B000D9F800000DF092F8DAF808000DF08EF8DBF804000DF08AF8C448A3E0AC48007815
:2015D00040010DF073F8C3490860D0B930680DF07DF838680DF07AF820680DF077F8D9F877
:2015F00000000DF073F8DAF808000DF06FF8DBF804000DF06BF8B54800680DF067F8B44841
:2016100080E09B48007800010DF050F8B2490860F0B930680DF05AF838680DF057F8206852
:201630000DF054F8D9F800000DF050F8DAF808000DF04CF8DBF804000DF048F8A3480068B9
:201650000DF044F8A24800680DF040F8A14859E08748007800010DF029F8A049086010BB16
:2016700030680DF033F838680DF030F820680DF02DF8D9F800000DF029F8DAF808000DF065
:2016900025F8DBF804000DF021F8904800680DF01DF88F4800680DF019F88E4800680DF056
:2016B00015F88D482EE072480078302148430CF0FDFF8B4A106070BB30680DF007F8386880
:2016D0000DF004F820680DF001F8D9F800000CF0FDFFDAF808000CF0F9FFDBF804000CF019
:2016F000F5FF7A4800680CF0F1FF794800680CF0EDFF784800680CF0E9FF774800680CF090
:20171000E5FF764800680CF0E1FF00200CF052FC4FF4804195E0316801200871326815739B
:201730003068457331688D733068C57331680D7400213068457400203268D172A0223168FC
:20175000487103213068C28001720720326850720021306881722821306801224182C27621
:201770000020316848770022306880F85E20012132681177012031684B4E81F85D000122A1
:201790003868027139680D733868457339688D733868C57339680D74002138684574002078
:2017B0003A68D172002239684871386882724FF420703968C88008818A7401213B68D974CF
:2017D0002268157321684D73226895732168CD7322681574002221684D7401212368DA72CB
:2017F00000232268117121684B712168C88008818B7205202268937421683A4AC874106897
:2018100080473168054608688047316851F8042F0020904719481D4BC16818780A8832493B
:2018300002430A802846314A136898470C2130480DF0FCFB10480DF0F5FB09F013FB4FF45E
:20185000005198F80000BDE8F44F06F019BC00BF6E4F0020044F0020B63F0050604E0020C2
:20187000084F00202C4E0020E81200503C4E00207B4F00200C4F0020344E0020C802010081
:201890006D4F00206B4F0020724F00206C4F0020F04E0020F44E00207C4B0020BDE600007C
:2018B000DDE60000F84E0020FC4E00205C230020E81A0020104F0020144F0020184F00203B
:2018D0001C4F00207C240020684E0020004F0020804E0020844E0020884E00208C4E002098
:2018F000904E00204C150020544F002050150020F84D00202DE9F04FCD4C04F118012046CA
:20191000ADF1340D0AF058F800264FF6FF7066700121208204F1A4000BF0DAF9022104F19B
:20193000C8000BF0D5F9042104F1EC000BF0D0F94FF0040A04F1440810224046314684F803
:2019500002A008F013FC04F1540910224846314608F00CFC04F11C073E6004F10A052E70ED
:20197000E671267207206072CDF80080DFF8F882022210200346414604F082F910200322F1
:201990004146CDF80090034604F07AF91020524641460097134604F073F94FF0010B4FF082
:2019B000030905F12A00079005F17900089005F11E00099005F15A000A9024350B9501E0DC
:2019D0000BF008FBA069B24A31464FF0FF33FFF761F8071CF6D0059606A80DF11A0105AAC3
:2019F0000BF0AEFA002840F0BC81BDF818102078102940F0B2819DF81A10884240F0AD81A7
:201A1000059D29884FF6FF728A4200F09B812B78A23B00F07C812E3B40F09F81A978B04698
:201A3000002900F03781891E00F00481491E012940F2D780891E00F09A80491E6ED0491ED2
:201A50005BD0083900F05281891E40F0558194F83A30A888052BADF8080046D0B8488DF8FC
:201A700012B00CF0FBFF94F83A0001281ED004281CD003280DD002280BD00598C188ADF811
:201A90000A100189ADF80C104189ADF80E10818927E0A08FE58FADF80A00B4F84030ADF820
:201AB0000C50B4F84210ADF80E301AE0A08FE9888842D8BF081CADF80A002989E08F884220
:201AD000D8BF081CADF80C006989B4F840008842D8BF081CADF80E00A989B4F8420088428A
:201AF00000DC0846ADF8100001E08DF81260A949102002AA04F0C4F8FEE0A7480CF0AEFF2B
:201B10006B78002B40F0F880E88860822889A0826889E0828A480CF0A1FDEDE0AA88B34920
:201B3000102004F0ADF807984146062208F01EFB6682A682E682A879207381480CF08EFFEF
:201B500095480CF08BFFD8464FF6FF702379208253B9A879082812BF84F801A005206070C2
:201B700040460CF09BFDC7E084F80190C4E06B787BBB291D07980A680260898881800623D6
:201B9000637068892082E8896082288AA082688AE082E878E07294F83A00012818BF0228B2
:201BB0000BD19E4910201F2204F06AF84FF47A7180B2414362480AF085FE68890090964920
:201BD000CDF804A0EA7810202D1D2B4604F058F895E06878312840F08680E67084F801A0A4
:201BF0008DE06B78002B7ED1A878E3896178032812D0E078257923B9012814BF2671E670DE
:201C100006E0054304D0864819460AF05BFE61780729E3D1062067E0062907D0E578002D78
:201C300008BF84F801906AD002205DE007205BE0D80B00206B78002B55D1EB786178ABB9EE
:201C5000022920D007291ED0062902D12079012819D1032917D072480CF000FD98B95846D8
:201C70000CF01CFD0FE0C04637DE00000BF0A4FB0246A07967490090089843460190102010
:201C900003F0FEFF68706D78002D2CD134E0C046070000806B7833BB62485D4900900222E7
:201CB0001020034603F0ECFF5F484A46584900901020034603F0E4FFED1C0998296801606A
:201CD000A9888180207884F801B00BF075FB02465B460A9D60794F4900901020019503F048
:201CF000CFFFC5B25DB10820607008E0AA8847491020052303F0C4FFB8F1010F2DD1256A8B
:201D1000002D2AD02D6845B36078A84725E06879132822D12889012808D1607B022805D196
:201D30001D480CF09BFE0BF055F916E03B491020052203F0A5FF81B217480AF0C3FD0CE0B0
:201D5000A00C00206888C00B07D338485246304900901346102003F093FF059808B10CF091
:201D70001DFE2579E078790830D355EA00032DD02046007895B9E179257A8DF808100B9A18
:201D90008DF8095013680DF10A052B609288AA8006E0C04605160110C40C00208DF80890D9
:201DB000617A8DF81010A17A8DF811100BF004FB1549024602AB102003F062FF30B10820F8
:201DD000256A607015B12D6805B1A847B80803D31749304607F07EFEF808FFF4F3AD677B40
:201DF0007F1E05D07F1E3FF4EBADEBE579B90000CDF800B0A08FE18FB4F84020B4F84230B9
:201E10000AF0B0FEDEE5C04659440110C1170110B96D0000094501108D710000C5E1000081
:201E30007C0C00201C0C00202C0C0020F40B0020120C0020BB482DE9F84F0025BA4CB84961
:201E5000056094F8E200002800F06581012800F02F81B64E02283CD0032840F05C8151F81D
:201E7000250CD4F8B8100029A0F5C060C4F8D400B8BF49420028B8BF4042814226DA4FF0FA
:201E90008057D7F8A4014568B4F8BC0030214FF47F42082300903046A847D7F8A40145683C
:201EB000B4F8C00004214FF4F802122300903046A847D7F8A401B4F8D070456820214FF489
:201ED00040620A2330460097A847012584F8D8501CE151F8258C0CF088FC2F4600B9012790
:201EF0003946934F38680028FCD0B146012609F10409D9F82CA03E6009B10CF07CFCCAF392
:201F10000720C4F8BC000CF070FCAA4600B9B2463B68002BFCD0D9F800B0BAF1000F3E6096
:201F300001D00CF068FCCBF38440C4F8C0000CF05CFCAA4600B9B2463B68002BFCD0D9F802
:201F50001C90BAF1000F3E6001D00CF054FCC9F38120C4F8D000B8F5C061C4F8B81000F025
:201F70009C8094F8D80068B9C4F8D410D4F8C000C4F8C800D4F8BC70C4F8C470D4F8D0304C
:201F9000C4F8CC30D4F8D400D4F8BC30002854BF02226FF0010204F1C8010F6800EB400000
:201FB0008018421000EB927207EBA2000860D4F8C810C4F8C43000291CDD1E293CDDD4F89A
:201FD000CC0030B93429B4BF15391E21C4F8C81025E02A29BABFD4F8C8000B381E20C4F8A9
:201FF000C800D4F8C4003F28B4BF401C3F20C4F8C4001FE0D4F8CC00032812D011F10B0FA4
:20201000C6BFD4F8C8000B30301CC4F8C800D4F8C4000028C4BF401E051CC4F8C4500325DA
:2020300008E011F1150FC6BFD4F8C8001530301CC4F8C800C4F8CC504FF08057D7F8A401F2
:20205000B4F8C43030214FF47F424568374800930823A847D7F8A40104214FF40032112360
:20207000456832480096A847B4F8C860D7F8A40104214FF4F802122345682C480096A8471F
:20209000D7F8A40120214FF440620A23B4F8CC60456826480096A84701E084F8D85040F23A
:2020B000FF50404502D8801C40452FD2082030E051F8251C1F4F4BF2F5204843060A386883
:2020D000C0F3814001280CD11B480068006880470AF002FA0CF095FB3111C010484306EB6C
:2020F000E03694F8E50030B91448006820F07F403618760801E084F8E5501148310C066073
:20211000012741600F4D8760287808B90B2000E0052084F8E40003F023FCBDE8F88FC0466E
:202130002D400C402C500C407413002000A00C4000800C40B43F0050EC01001010200940F6
:202150003C600C40610101002DE9F04F09AFADF13C0D08900A92388809911E46ADF8180081
:20217000101C08BF002000F06C81017800274FF0010B401C4FF0FF39B846DA460A9058E1B0
:20219000252940F04D810178401C0A902D2918BFADF8068004D10178ADF806B0401C0A907D
:2021B00030291CBF4246434604D10178401C5A465B460A902A29CDF800804D4617D104939B
:2021D00030680A9BCDF80890C01C20F00300001D306050F8044C1978002C009403F10100DB
:2021F0000A9018D5ADF806A06442009413E044460AE0600000EBC4004018A0F130040A988E
:2022100001780094401C0A90302901DB3A29F0DBCDF8089004932E2929D10178401C2A29DB
:202230000A9011D13168CDF80880C91C21F00301091D316051F8045C002D48BF454601789A
:202250002B46401C0A9011E0454643460AE0680000EBC5004018A0F130050A9801782B4656
:20227000401C0A90302901DB3A29F0DB02930AB1224604926C2904D04C2918BFADF80480C9
:2022900004D10178ADF804A0401C0A900BA8CDF80C800FAB07906429059379D0692977D005
:2022B000BDF818C0752965D0782961D06F295DD0702946D0632936D073291AD00A98401E50
:2022D0000A900998012812D961490C68B5F1FF3F03D0A84288BF6D1C00D8099D029508A84B
:2022F0000AA932466B46A0473F18039865E0454617E03068C01C20F00300001D306050F8D6
:20231000040CBCF1010F014608B94FA0014607910CF000F90390B5F1FF3F4FD0A8424DD96F
:20233000039528464AE03068C01C20F00300001D306010F8040C8DF82C005D460395584687
:202350003CE0082035680490E81C20F00300001D306050F8041C082210230FA808F062FA64
:20237000401E079040210170079823E0082302E0102300E00A233068C01C20F00300001DF3
:20239000306050F8041CAA42BCBF2A1C04920DE03068C01C20F00300001D306050F8041C69
:2023B000AA42BCBF2A1C04926FF009030FA808F039FA07900599081A0390009C241ABDF804
:2023D000065000945DB906E008A8202109AA0BF068F97F1C009C641E0094F5D50398401EF7
:2023F000B0F1FF3F03900FD1BDF8060001281CD10098401E009018D408A8202109AA0BF099
:2024100050F900987F1CF4E70798017809AA08A80BF047F90798401C079003987F1CDEE712
:2024300008A809AA0BF03DF97F1C0A980178401C0A9000297FF4A4AE089808B1414601700D
:2024500038460FB0BDE8F08F286E756C6C2900C0AC0201002DE9F84F0C46E00788B00BD5E2
:202470000CF00CF928B100218160AB48006800B1804784F001004CE1A0070FD5002100232C
:20249000069105910491039302910191009101223C200CF0C3FD84F002003AE11D256007A9
:2024B0009E4E9F4F40F18A80002107918B469D488178FF2904BF00200BF07CFD386890F8E8
:2024D000A0000BF0F5FF80463868C07A98F82691022818BF032808F5907A06D106F10D0068
:2024F0000CF098FD08B906F1070B514648460CF08DFD88B33868807A002818BF012804D1F4
:20251000314650460CF07EFD04E05246494630460CF074FDFF2834D005FB00F906EB090516
:2025300006225146E81D0BF08DFE16F80900396840F00209E81D07900622887E00F0010093
:2025500088F8260105F1010A386800F1140108F590700BF077FE14E0514648460CF04AFD54
:2025700078B15246494630460CF048FDFF2808D006F10D01454348190CF04CFD08B149F020
:20259000020908F12C004B46017806914289120905920122B8F822100491C08807990291C8
:2025B00040080390CDF804B0CDF800A0002098F806100CF033FD84F00400AAE020060FD554
:2025D00000210023069105910491039302910191009101223B200CF021FD84F0800098E095
:2025F000E0043BD5F11D06F10D000CF0FFFC38684179012923D1017A012918BF04291ED1BE
:20261000C17A022918BF032919D1817E00F1140230460CF0F3FCFF2811D04543354405F1F1
:202630000D000CF0F7FC50B9E91D05F10D000CF0DDFC38680622E91D14300BF003FE3A4817
:2026500042683A4800784FF4805109F0DDFC10B18E2007F08FFC84F480505AE0A00505D5EE
:202670000CF0C3F8324901200860FEE7600504D505F0B1F884F480604BE0600405D581206C
:2026900007F078FC84F4804043E0A10440D5294D286810B100200BF08DFC274E4FF0FF305C
:2026B00028600CF09FFC3168244D51F8202F684690472349234B486A8A6A0090019202938C
:2026D000C86A0268086A0392ADF810000A6B1178002904BF5068002805D19068002804BF0F
:2026F000D068002806D02970506868609168A960D068E86029463568134A2E6813486B46EE
:20271000B0471349086003F083FB84F4005000E0002009B0BDE8F08F204F0020AC45002038
:20273000104F0020684E0020784E00206E4F0020FC002043044F0020F04E00206845002074
:20275000981800207DE600002C4D002060230020EC4E00202DE9F84FB34D696884B00191AC
:2027700021B905B0BDE8F04F0CF038BC0978DFF8BC82AF4EDFF8BC92DFF8BCA201291CBFF4
:202790000229042946F2A81741F64C5B05D0402918BF802900F096803CE10CF05DF80028A2
:2027B000FAD00198007803F0B3FF0090446814B900200BF0FFFB9AF8010000285CD001F093
:2027D00005FD0BF075FE02900168009801914F6808F038F9022825D000990A78012ADBD163
:2027F00096490A68137A19F80310317018B90CF0F1FB5844A0602069C17E01F0EF01C176F1
:202810002069C17E41F08001C1762069C17E01F0F00141F00201C1762269B968884841180D
:20283000D1614BE001980178802911D10820854930700A78012A03D09AF80100022801DBDF
:2028500038690CE0D8F828003A690178D1720DE07C49072030700A783869012A02D10121C8
:20287000C17203E0D8F828104A78C2720298817901988AF80210C8E0009800288CD0019915
:20289000009A0078914205D101281CBF00200BF091FB15E0012840F0BD80684801680A7A9A
:2028B00019F8020030700CF095FB3918A0680CF08DFB18B90CF08EFB5844A0600120A870C1
:2028D0000098A2E09AF8010000287AD001F07EFC0BF0EEFD04462068029047689AF80200D1
:2028F0000BF0E6FD03900BF0BDFF10F0070F3DD0A87803F00DFF019041680198009102995F
:2029100008F0A0F8022831D001990A78012A2AD14A490A68137A19F80310317028B90CF076
:2029300059FB83440098C0F808B000980069C17E01F0EF01C17600980069C17E41F080011A
:20295000C17600980069C17E01F0F00141F00201C176009AB9683A4841181069C161012150
:202970000198A97051E000200BF024FB0398A04225D0029833490278802A12D108203070D3
:202990000978012903D09AF80100022803DB38690121C17210E0D8F828003A690178D172D1
:2029B0000AE0072030700978386901290EBF0122D8F828104A78C272A0798AF802000298E5
:2029D00023E00BF04FFF10F0070F29D0A87803F09FFE04462078D4F80480012820D1174930
:2029F0000868027A19F8021031700CF0F3FA3918D8F808000CF0EAFA20B90CF0EBFA5844CF
:202A1000C8F808000120A870204605B0BDE8F04F05F0F4BB05B0BDE8F04F00200BF0CABACA
:202A300005B0BDE8F08F00BF7C240020C80201006F4F0020289A0110684E0020104F00205D
:202A5000F0D8FFFF734F00202DE9FE4F0F469E4C0168E16241688068E0609C48A1608047F3
:202A70009B48E16A0160A168DFF884B24160E168DFF8788281609749002FA246C1606ED0AF
:202A90003D68E8788DF8080028798DF8090002A80CF098FAA86808B18F490160E86808B122
:202AB0008E4901608E4C287820706878BE686070A878B268A0703178A2607368E1702E6936
:202AD0006360EA6926627968E2620868E06068696062A8697B68A062286A9E68206395F842
:202AF000240084F834001EB900200BF063FA00E066617868C06818B900200BF05BFA00E0D3
:202B1000A0617868006918B900200BF053FA00E0E0617868406818B900200BF04BFA00E068
:202B3000206128692062F86881680E6806B96E4E6C494FF001094E60C66881F801902EB9EC
:202B500000200BF037FAF868454601E045462E6000685C46FE68A0617068E06106E00020A4
:202B70000BF028FA4FF001095C46454628686149466804F108035A465020B04710B1286872
:202B900080688047DAF8080080475C4F0026834669467E7058483E700422606130460AF0F9
:202BB00031FA0098B0F5801F0CD020B90AF00CFD03F066FF08E009F005FA0BF0A1FC042052
:202BD000788001E00AF000FD4D4FB0462868C7F808808069E660804778604A48468080F80E
:202BF000009014200BF062FDFF211422A0620BF03DFFE01CFF2102220BF038FF14200BF077
:202C100055FD414908600868142231460BF02EFF3046FEF785FB484609F012FD3B4801888E
:202C3000FF2906D1022101807822001D31460BF01DFF03200CF0C2F904200CF0BBF90520C9
:202C50000CF0B4F906200CF0ADF9072008F0D2FB2F4E0820307006F124000CF09FF908F01B
:202C700087FD06F1360705200A213A460BF0DBF838B14046C0F10901401C07F8011B0A281B
:202C9000F8DB3078102105F0FBF92F68214909200DF10A0201AB7D68087010204146A847AC
:202CB000A06ADAF80C10E2690A270A309DF80A307F1E00F8013BF9D1921E5846E26188478C
:202CD00002F00CFABDE8FE8F4415002041490010F844002044F00000FDD4000095E10000D0
:202CF000981800200C1B002033A80000A41B0020C8190020E1D900000DE20000D40B00204A
:202D1000702400209C1B0020AC2400206C160020EC100020BE2400202DE9F84FDFF8ACA2E6
:202D30000F460446F80B80F00681A34EDFF87C82B80F80F0B780B80880F0AB803809C0F06A
:202D50002C8108200BF070FD002840F09D8080200BF06AFD002840F09780684606F098F80C
:202D7000012803D10098002800F08E8000250124E8B20BF093FB48B1837A3BB1847290F9BA
:202D9000090004FA00F0C0B209F080FD6D1C032DEED345464FF0030905F1AC0085F8109035
:202DB0000BF038FE8248002301680360814950F8082C98461A4640F8088C05F134000BF0A4
:202DD00035FE3068006B8047A968401A010BA869C1F1FF3282422CBF08444FF0FF30A86109
:202DF000287F20B1E868A969B1EBC02F1ED90AF0DFFE414600B12146081C14D06F4840F6FC
:202E10000901018041464180427B64F303024273027B61F30302027341600BF00FFC418846
:202E300011F4406FFBD02C774146A9616448016821F0020141F400710160624941F8049C1B
:202E500041F230028A600C6050268E600C604FF4CA628A600C6041F80C4C44460460022071
:202E700009F002FF112005F06BF9287818B9686838300BF0E7FD687F18B16C77052009F085
:202E9000F3FE514868612C7408F0E0F827F0080783E004F0E9F945467435286808B927F064
:202EB00002077AE00BF0BCFDB3468146DBF85400016804208847D8B1207CC8B14546083542
:202ED0002868A8B10646DBF80000E568006B8047801BE060000BE060A84202D240194008D6
:202EF000E06040F6C41181422CBFB0F5FA7FE1604846FDF7CBFD09F0ADFC90B1A5692046C9
:202F10006FF4807100224FF00073A847464606F16C052868002808BF47F0020701D008F00E
:202F300095F82046646900214FF080630A46A04727F0005731E00BF073FD51460E6846B357
:202F500006F1280106C90A234FF0E0450B40154008BF002B1DD106F1280191E8300006F1A1
:202F7000280393E8060006F12803AA43A14383E80600FDF78BFDB06868B1002D08BF002C64
:202F900009D030692246B6F93C10B4682B46A04701E0FDF77BFD27F4804727B150463946BC
:202FB00050300BF057FDBDE8F88FC046C81B002014100440A9B300008C0100103824002020
:202FD000000004600C410440D17F0000481C00202DE9FC41A0F2013714468846022F40F270
:202FF00032819B4E9C493F1F0F2F04D9143F4CD0BF1E1CD011E0DFE817F0CF00C9000D012A
:20301000FA00C100B9002601AF00A700100010009D008F007F00740066002A2880F21381B2
:20303000B8F1020F40F00F818849238807E1B8F1010F40F00881F078012800F004813246B2
:2030500020781179107189B9002800F0FC805078012800F0B580042800F0B280062800F065
:20307000AF80052800F0AC80BDE8FC812078002840F0E9805078032800F0AF80072800F01C
:20309000AC80052840F0DF80A7E0B8F1010F40F0DA802078012840F0D68006F1EC000BF049
:2030B000DDFA002840F0CF803446002004F13A0106F010FD002840F0C68004F1C8000BF05F
:2030D000CDFCBDE8FC81B8F1020F40F0BC8020880A28C0F2B880B0F5486F00F3B4808E1CDE
:2030F00017E0B8F1020F40F0AE802088B0F5FA7F80F2A9800E460CE0B8F1020F40F0A38003
:2031100020880628C0F29F80B0F5486F00F39B803E363080BDE8FC81B8F1020F40F093804B
:2031300020880628C0F28F80B0F5486F00F38B803C36EEE7B8F1010F40F085802078062893
:2031500080F28180454E0EE0B8F1010F7BD12078042878DA0A3606E0B8F1010F73D1207895
:20317000082870DA09363070BDE8FC81B8F1010F69D12078042866DA0836F4E7B8F1010FFB
:2031900061D1207804285EDCF61DECE7B8F1020F59D120880E36BCE7B8F1010F53D1307910
:2031B000012850D032462078D178D07069B9002849D05078012803D0042818BF052842D1B3
:2031D00001200BF06BFABDE8FC81207800283AD15078022818BF052835D110780AF0ECF80F
:2031F0001C490246102002F04BFDBDE8FC8106F1830500211F22284606F0B8FF214642469B
:20321000284605F07DFF44463078B4710AF0D4F8002311E006F1640500211F22284606F068
:20323000A5FF21464246284605F06AFF4446307874710AF0C1F8012300940949019502466D
:20325000102002F01DFDBDE8FC81C046B1CD0000D80B002099450110180C0020120C002008
:20327000094501102DE9F04F8246DAF80070DAF804600C465FEA0208ADF11C0D14BF0021EA
:203290004FF0FF31DFF8449248460BF074F9002818BF0B2040F01681002590488D490570D3
:2032B0008B48FC6052460BF0C1FB317B27200BF0BFFBB8F1010F07D06570022009F002FF57
:2032D000062009F0FFFE01E0012060702078012840F2AB80801E012868D9801E012833D9F7
:2032F000801E012800F2DF800BF09AFB83464FF0805000F5EE77D0F8DC01A378466A0093E1
:2033100021782846062908BF0120019001200290A068228AE1686368B04781465846FDF723
:20333000B5FBB9F1000F40F0C080B8F1000F02D00AF04CFF02E0504609F04CFD002800F003
:20335000A4803868806A2AE00BF06AFB83464FF0805000F5EE77D0F8DC0101230668009349
:20337000A168A27860682478AC46042C08BF9C466346B04781465846FDF788FBB9F1000FB6
:2033900040F09380B8F1000F02D00AF01FFF02E0504609F01FFD002877D03868406880472D
:2033B0004D49C1F8B0510D6081467EE00BF038FB83464FF0805000F5EE76D0F8DC01E38AAA
:2033D00087690093E0680190208B0290A0780390207D04900121059122782846022A08BFB5
:2033F000081CE1786268A368B84781465846FDF74DFBB9F1000F58D1B8F1000F02D00AF065
:20341000E5FE02E0504609F0E5FC00283DD03068006A80475FEA000947D13068C569A16830
:20343000E28A2369E078A847BEE70BF0F9FA83464FF0805000F5EE76D0F8DC01E38AC76838
:203450000093E0680190208B0290A0780390207D2946049001200590257805B901460846C2
:203470006268A368E178B84781465846FDF70EFBB9F1000F19D1B8F1000F02D00AF0A6FEE2
:2034900002E0504609F0A6FC08B914201AE03068406980475FEA000907D13068026921695B
:2034B000E078904780E74FF0FF39B8F1010F05D0022009F0D9FB062009F0D6FB03480BF03C
:2034D000C1FA484607B0BDE8F08FC0465C17002094170020DDD6000050450240BC240020CA
:2034F00010B50B7884074CBF43F0020303F0FD0304064CBF43F0800303F07F0304074CBF5D
:2035100043F0080303F0F70384064CBF43F0200303F0DF0310F0AA0F0B7003D0107840F0F1
:203530000C0003E018B9107800F0F300107010BD2DE9F8430D4600272878022814461E46B0
:2035500067D1696808784978DDF8208000EB012080B25FEA08021CBFB0F5285F0B205BD1AD
:203570004FF42851401A08D0401E21D0401E2FD0401E25D0401E31D04BE0DDF82490E868EB
:203590000BF076FA80B2A0EB08024A45BCBFA0EB08001FFA80F909EB0800162806DAA6F802
:2035B00000904A46E86800EB08010DE00D2732E0E8680088022131802070000A60702AE044
:2035D000062030800622E96820460AF03BFE22E001203080E9680A7822701CE0E868B0B10E
:2035F000082131800288227003881B0A63704188A1704288120AE270818821718288120A6F
:203610006271C188A171C088000AE07103E0308001E0378001273846BDE8F2832DE9F04791
:203630000F46814638780024022890461D466DD17868089E01784078DFF8D8A001EB0021D6
:2036500089B24FF42852891A06D0491E29D0491E4ED0491E39D059E0F8680BF009FA80B2CB
:20367000B04204D3A919162903DB0D244FE007244DE0FB682A46414698190AF0E3FDAD192F
:20369000F868ADB2C5F11602002140190BF0EEF9DAF8000000281CBF0268002A37D00021A0
:2036B00023E08EBB022DE0D198F8000098F80110FA6800EB01201080DAF8000000281CBFCA
:2036D0000268002A23D001210FE0EEB9062DCCD1F868062241460AF0B5FDDAF80000002816
:2036F0001CBF0268002A12D00321484690470EE056B9012DB9D198F80000002813BF012878
:20371000F9680870802402E00B2400E001242046BDE8F087A4240020FEB57748774A0078F1
:20373000774C784B78490D2840D8DFE800F0E307070707DBDB5EDB9A9AB8B8BF146041F236
:20375000044572494C88AC421FBF4E8BAE424F8EAF4203D11D806E4810607AE0002C6D4D47
:203770001C804FF4A05639D0641E3CD0641E35D040F2FE37E41B1AD0241F012C1DD94FF44D
:203790007F77E41B1BD04FF44067E41B0FD0A41E012C0CD9241F0AD0641E012C0DD940F2B9
:2037B000F937E41B012C19D9241F08D09AE0022814BF1E80584D15604BE0584DFBE758480F
:2037D00003681C7A012C05D141F20240488048834886F0E74E804E834E86ECE700200AF0C8
:2037F000E9FB832082E08F2080E04E488178FF2954D0146018204C4C41432068851C40F2C3
:2038100004466C5A1C80A41B012C484B72D94FF47F76A41B0FD04FF44066A41B032C84BF32
:20383000641F012C0BD9A41E012C63D940F2FD36A41B08D103E0801C41F2014444521360BC
:2038500003F0CAFF05E000200AF0B4FB85200BF0A1FB03B0BDE8F04035480078012104F01F
:203870000FBC40F204424888188090421CBF41F2084290423ED041F60402904211D12D4C19
:203890002D482E4B00680025CDE9004502222C4C256855F8086FB0472A490880F7BD48883F
:2038B000188000200AF086FB85201FE04888188002280DD940F20442801A1BD040F6FC7208
:2038D000801A05D0083815D04FF47F72801AE8D1887B801CC2B2B52AA8BF662088730020C3
:2038F0004880F7BD00200AF065FB8420BDE8FE400BF050BBF7BD00BF6F4F0020204F002055
:20391000D1E90000504F0020CC4C0020204A002059550110615A0110B1540110755B0110DA
:20393000104F0020684E0020804E0020313901106E4F002002000080EC4E002049CD0000EA
:20395000F04E0020424F00207CB5894D144602460026A2F58062182A1AD8DFE812F0FE0005
:20397000F800F100E900E200DC00D500D0001900C500BE00B700AE00A300190019008000AC
:203990006F00680054004C00420039002C0024002A2880F28580022940F08280218809F00D
:2039B000FFF90646E1E0012940F0DE80002C00F0DB801135A6E0102940F0D680002C00F01C
:2039D000D38028465030102221460AF03BFCCCE0012940F0C980002C00F0C68029468D1D02
:2039F00090E0262940F0C080002C00F0BD8005F160002622E8E7012940F0B680002C00F016
:203A1000B3806D1D7EE0602900D13CB9012940F0AB80002C00F0A8800D3573E005F1860052
:203A3000214660220AF00EFC012068739DE0012940F09A8020780BF0A9FA96E0012940F096
:203A500093802078022800F38F800C3528702078022814BF301C01200BF094FA85E0072986
:203A700040F08280611C684606220AF0CDFA20786946324604F030FF04460A2C10DA0BF0A9
:203A90007DFA38B9204602F069FF09F0E7FE07F06FFE6AE02A46012002F12C05285564E0EC
:203AB000022662E001295FD1A87B21780028A9735BD12078012858D1E9E7012954D1247861
:203AD000072C51DB102C4FDC0B3537E001294BD124780A2C48DA093530E0012944D1247856
:203AF000022C41DA083529E000293DD10BF046FA10B90AF05FFCC8E701240F351EE0012957
:203B100032D10A35247819E001292DD12478022C2ADAED1D12E0102926D12B4603F14000F7
:203B300051E7012920D12478022C1DDA2D1D05E0012919D12478042C16DCED1C2C7014E0C7
:203B5000012911D12478022C0EDAAD1CF6E702290AD120881435288007E0012904D12478D0
:203B7000022CD8BF6D1CE9DD182630467CBDC046EC1000202DE9FE4F05467B480024006815
:203B90000094C00905D37948007810B9202009F03BF9012D40F0E280DFF80092D9F8DC009B
:203BB000012840F0D8800220C9F8DC000AF0AEFA012009F029F95FEA000805D00120C9F89F
:203BD000DC000AF0AFFACBE00AF040FFA34602906748684DC0F800B0A86A016801208847C0
:203BF000012804D1584606F063FF012000906248624FC0F800B0386811200AF00FFE00B1C4
:203C1000012410200AF00AFE08B144F002040F200AF004FE08B144F004040B200AF0FEFD0A
:203C300020B12868564E016B308888470A200AF0F5FD20B12868534E016B308888475248D7
:203C5000012606602868816944F0200088474F4806600AF0DDFD00F001010191400814D2A7
:203C7000286A81684A4888478246BAF1040FF7D0BAF1010F04D1286A4268454803219047B7
:203C90004449086820F003000860584600F088F82B683868986B8047019801280CD0BAF148
:203CB000010F04D1286A42683948314690473949086840F0030008602F4806602868416960
:203CD000204688470B200AF0A9FD20B128682C4BC16A188888470A200AF0A0FD20B1286840
:203CF000284BC16A18888847274806600322C9F8DC20264BC3F800B02868416B20468847A3
:203D10000128F9D13868042009F07EF80446184806603868144800688009FBD300980128E1
:203D300002D1304606F0C4FE0AF065FD082009F06BF807460298C9F8DC600BF01BF9164841
:203D5000008806F01FFC0AF0EDF957EA040018BF4FF0FF3804E06FF0040801E06FF00108B0
:203D70004046BDE8FE8FC046141009405C1400200C400940B8010010000222432C2009401E
:203D90006EFD00006AFD0000282008608001044300400340242208405C01010074130020B3
:203DB0002DE9F84FDFF804B20746ABF13500DFF8F0810068800880F0E28075480068006854
:203DD00080477E490831D1F8009000254FEA29715FEA995201F101010AD2C0F13E0210F1C5
:203DF0000A0F4FEAE202D8BF08229142B8BF111C684BD3F87C21C2F30462162AA8BF203A0E
:203E10001B68C3F30443162BA8BF203B9A465218162A05DA12F10A0FB8BF6FF0090200E0C9
:203E300015225D4B5D4E02F01F0141F4F8511980316811F0030F18BF0125C90828BF45F029
:203E500002050FB145F00405434693F90710411A052904DA9979A94208BF99886FD0DFF8BF
:203E700044E10F28A0F10F0829DB08EB0011A1F1F0084FEA28210091072984BF072100915D
:203E9000062988BF06215EF821600424774604EB81043C594FEA950CA41BEE0804F0FF012D
:203EB00024BFC4F3072631446F08AE0824BFC4F3074631446E0828BF01EB146104E000216A
:203ED0004FEA950C6F080091009C5EF824E05FEA5C060EF0FF0424BFCEF3072634447E087F
:203EF00024BFCEF3074634446E0828BF04EB1E64009E89B2A8EB06267143803104EB11245A
:203F1000AAEB02010029D8BF0121342209F0FF074A4391B24FF6FF727943B1FBF4F18A4223
:203F300038BF111C802889B2998005DA10F1800FB8BF6FF07F0000E07F20D8719D711A4855
:203F500000681F2918604FF0000008D340F2FF128A4206D24908401C8A42FBD301E01F21C0
:203F70009980134F0F39090940EAC10047EA0001CBF8FB1F0026CBF8FF6FBDE8F88F0D4989
:203F90000D4F434608200F609B1D1870BDE8F88FEC0100103C1100506E62084024220840E9
:203FB000982400209C130050082009403500094000E7A48030100940FDFDA400AC3F0050BA
:203FD0002DE9F04F044672488E46016894461F46BEF1000FADF13C0D4DD0BCF1000F4AD064
:203FF0009EF8002001209040014244D0BCF80000B0F5C15F32D1DCF81400DCF81860654B53
:20401000DCF81C50DFF890A10B904FF003080DF128090C9618680D95C0F3036B59F8046F8B
:20403000CEB10021351F05200B4655F8042FB2F1FF3F10D0924506D0401E01F1040103F1CF
:204050000103F2D107E0052B05DA705820F4702040EA0B407050B8F10108DFD1C4F804E0F0
:20407000C4F808C00AF0DCFC4C4D8046287820B14046FCF70BFD002087E002F01FFA484966
:20409000086840F00200086007A80AF0DFFA002605F1D00007AA4349099608F077FA4249C8
:2040B00005F5827007AA08F071FA07A80AF096FAFF20192107AB3D4A089005F1340008F06B
:2040D000CDF93B4A05F150001A2107AB08F0C6F93849324605F18800134607F0F5FB364965
:2040F000324605F1AC00134607F0EEFB334A05F120000421334609F011FB0E2004F038F9D4
:2041100005F174000AF08DF905F16C000AF089F92E740523EB60072085F898012E77AE61C1
:204130006E772849AE60264A69612B781670581C28704046FCF7AAFCB1461FB968460AF006
:204150008FF96F4638682060388A6082012060747B6813B940F6C4130646E3601A48A061AB
:2041700026746061F86800B1A061B86800B160614946582204F1200005F0F8FF04F13800F9
:20419000494609F09DF96C6020460FB0BDE8F08FD4210840541300500200F844C81B0020A7
:2041B0000020094065E100006D7A0000A9B300003DAD0000A1DB00001DDF000055BB00008B
:2041D000B6240020D17F0000438800002DE9FE4FDFF8F48198F8011011B9002009F0EAFE9F
:2041F0000AF0F8FE07464FF0000907F6C4170026764D774C11E030460AF05AF9417951B136
:204210002A68817902F8091009F101015FFA81F939460AF0ABFE761CF6B220788642EADB9F
:2042300098F80110894505D0002009F0C3FE82200AF0B0FE98F80100012840F0A7800026CF
:2042500001E0761CF6B22078864280F2998030460AF02EF9074678790028F2D02968B879C7
:204270000A7890421CBF002009F0A4FEB87985E02868C05D0AF01CF900684268DAF80810F6
:204290009068814204BF34467F1C00F08D808FE02968087801234FF4C07210E0D8F8047031
:2042B00007F5AD7CCF5C02FB07FE02FB00FA3CF80E403CF80AC0644538BF38465B1CF7B2E7
:2042D000BB42EBDB06464FF6FF700AF04BFE8246F0B20AF0EDF84FEA5A010068446840F6A1
:2042F000C410414300270190009117E0F0B20AF0DFF801680A78802A03D1DBF81030009A8D
:204310005A610978402908D1324A8079116801EB4012009800F5A060D0617F1C4F4551DACB
:204330002868C05DF1B28142F7D001464FF4C073D8F80420594302EB010C02F5AD72BCF882
:204350000E30515A5A088A4202D25B1A9945E4DA0AF0AEF80068D0F804B0A268DBF80810D8
:20437000019B4FEA5A00A1F6C41103FB00200AF02DFE0028BAD02868C05DC0B2BDE8FE8F4C
:20439000002009F017FE82200AF004FE98F8011028680AF0E3FD286800780AF089F800248F
:2043B0000068D0F804A00127661C4F45FFF660AFE4B2002C1CBFF0B200287FF469AF286855
:2043D000067880E73046D8E7684E0020004F00207B4F0020844E00202DE9FE4F0E46824613
:2043F000307AC10693461F464FF000090CD558460AF0B0FD030000F0E8800A2231465046FC
:2044100098475FEA00094DD130780C9D0D9CDDF8388002281AD170680178407801EB00218B
:2044300089B24FF42052891A012910D9891E3AD0491E14D0FD397AD0491E00F08180491E8B
:204450006DD0491E73D0491E00F09580ABE0002C2AD1F068017829800278416887E0002C17
:2044700022D101202880F1680A783A7000217089401C80B20AF06AFD298860B10278921CF8
:2044900051182980418979704289120ABA7041680278F81C6CE0091D298004220021781C09
:2044B0000AF0E4FA93E0002C66D1F0680688042129803E70320A7A700DF1020130460AF045
:2044D00045FD040021D0D4F80C80BDF802204FF6FF766B4631460AF035FD40B923786268FA
:2044F0003C4802210AF02AFD08B9ADF8006098F8000002280BD1D8F804100222381D09F032
:20451000A1FE2888801C288001E0ADF80060BDF80000B870BDF80010090AF97057E0002C91
:204530002AD1F068016850460AF048F802E01CBBF0680088022129803870000A787046E0BA
:20455000F0680AF095FA80B2A042B8BF4FF007093DDB844208BF002205D008EB0402824237
:20457000B4BF4246021B2A8092B2F0680119384609F068FE2BE014B14FF00B0927E0F06854
:204590000721298002783A7043787B704188B9704288120AFA7001793971C2887A71C0888D
:2045B000000AB87113E058460AF0C4FC5FEA00090BD00F980290CDF8048000942B463A4639
:2045D00031465046C847814601E04FF00E094846BDE8FE8F50FF0000FEB50E46002407462A
:2045F0004CA503224DA3DA2100942846019404F09DFC4EA3B81E08D0801E7BD0401E62D06E
:20461000401E49D0401E2FD015E0012E09D000942846ED210322019404F088FCEE2146A37F
:2046300071E000942846E8210322019404F07EFCE92146A367E00094284640F2051103223D
:20465000019404F073FC009428464FF48371032244A3019404F06AFC01208DF80B009DF8D8
:204670000B000028FBD1FEBD00942846FF210322019404F05BFC009428464FF480710322EE
:204690003EA3019404F052FC01208DF80A009DF80A000028FBD1FEBD00942846F921032213
:2046B000019404F043FC00942846FA21032238A3019404F03BFC01208DF809009DF80900F8
:2046D0000028FBD1FEBD00942846F3210322019404F02CFC00942846F421032231A301948A
:2046F00004F024FC01208DF808009DF808000028FBD1FEBD00942846E0210322019404F0EB
:2047100015FCE1212BA3009428460322019404F00DFCFEBD6D61696E2E6300C03E3E3E5331
:204730005441434B20415353455254002A2A2A4552524F522A2A2A003E3E20494E544552B0
:204750004E414C204552524F522100C03E3E20494E5445524E414C204657204552524F5283
:204770002100C0463E3E2044454641554C54205350494E4C4F434B2100C046C03E3E205704
:20479000524F4E47204150492043414C4C2100C03E3E204943414C4C2054494D454F555474
:2047B0002100C0463E3E204943414C4C2041424F525421003E3E204F5554204F46204D450D
:2047D0004D4F5259210070472DE9F0410446764DA178A869ADF1180D891F00F0DE80C91E8C
:2047F00000F0C980491E5FD0491E48D0C91E3CD0481E40F0D580287A697AB8B9687800287F
:2048100031D0A0880AF092FB071C00F0C980A07A40080FD3787968B1E168890A0AD2B91DA0
:2048300001AA04F059F80A2804D10321A0880AF079FBB5E0287B022802D1A07A0009F4D398
:20485000A088797904F1080201F052F9A869002800F0A6804368002B00F0A28000210A464B
:20487000A08898479CE00521E0E7002800F098804368002B00F0948062780221F0E709F0E1
:2048900005FF002800F08C80A86950B1076847B1206900906189227B637BE01C3C46A04784
:2048B0007EE060890121C2E767784FF00008002F52D1A17949084FD3EF69002F4CD101A884
:2048D00041460E220AF0D2F8A0880AF02FFB071C66D0606940B97879B91D06228DF80A0068
:2048F00001A809F0AFFC19E06669307C062206F111018DF80A0001A809F0A4FC07F10C00E1
:20491000B91D062209F09EFCB81D062206F1110109F098FC307C40F002007871A1799DF8ED
:204930001120C1F3800010438DF81100080905D39DF8110040F008008DF8110001A82146AC
:2049500000F024F928B92878022103F099FB404627E0A8694FF0150810B3436803B3A088C9
:20497000627801219847B8F1000F19D0A86943680321424674E7E078211D002203F0ACFF92
:204990000A280DDA410001EB800004F10C0225300421C0B202F008FA02E0A08806F0E4FF7B
:2049B000012006B0BDE8F081EC1000202DE9F04F754F1E46ADF1340D01914FEA9609029284
:2049D0003D680090710809F1020221F0010105EB8200091D0390901805EB800004905018C9
:2049F00005EB80038018059305EB8000079026F0030000F1080802EB080005EB8003401823
:204A10000893801805EB80000990C6F39C008000083002EB4000411805EB800305EB810BC8
:204A30000A938918831805EB8104404405EB8303C6F3990105EB80008900069038680B93FE
:204A50000A010021803205F091FB4849DFF820A109682846AAF1880290470746B94518BFC1
:204A70006FF001007ED128465546394605F1680290470198314609F08BF9002818BF01200B
:204A900070D10298314609F083F9002818BF022068D103980199A84704980299A847009803
:204AB00081680598A847334B0399059A20469946C847012802D1BD0066590EB1032051E0D9
:204AD00020460021424605F051FB0499059A2046C847012801D166590EB1042042E0274B94
:204AF000254D079803991E462A46B047089804992A46B047079909980A46B0470A980999BE
:204B1000079AB0471E4D0B9807992A46B04720460021282205F02AFB1A4B0A990B9A2046DA
:204B30009946C847203520462A460146C847089958460A46B04706980021424605F016FB23
:204B5000FDB25846002D0CBF0122FAB20021635C455CAB4218BF052004D1491C521EC9B2A2
:204B7000F5D100200DB0BDE8F08FC0468C4F0020B9DB0010C9DE0010FC190020F9E00010E4
:204B900060FE0000C9E60010884F00202DE9FF478146714CDFF8BCA1E069884600284CD181
:204BB000B9F1000F00F09480B8F1000F00F09080484608F01FFD05460A2D23DAD8F81470FB
:204BD0002574002F37D0680010216A4600EB85002330C0B209F027F990B950460778FF21E1
:204BF0001022684609F047FA50B93FB999F80600494600F001000AF091F901E00120A074D9
:204C1000E0691AE004F1E6070A2600253846FF21062209F030FA68B9761E07F10E0705F169
:204C30000105F3D1607C002804BF0A2020744FD094F836502574E06900E0257C0A2D47DA29
:204C5000002835D168000E214A4600EB85002030C0B202F0A9F8207C06F0C0FF6846FF210B
:204C7000102209F003FF207C10216A467030C0B202F09AF8217C0E220801A0EB4100001929
:204C90004946E63009F0DEFAD8F814206AB15046007840B9107C02F11101002300F00100C3
:204CB0000AF038F901E00120A074C4F81C804CE08268002A3ED10269002A2FD142690ABBF7
:204CD000C2683AB9A07B08B108F05CFA09F09CF801203BE06800102100EB85002430C0B2ED
:204CF00002F062F8E769217CFA68480000EB8100103225300421C0B202F056F8E16900207D
:204D1000C86022E06800102100EB85002330C0B202F04AF8E1690020486116E068001C21A9
:204D300000EB85002230C0B202F03EF8E169002008610AE068001C2100EB85002130C0B272
:204D500002F032F8E1690020886000200090BDE8FF87C0465A4F0020EC10002066480178E8
:204D7000002900D170472DE9F843491E032984B004D9891F012940F2BC80B4E05F4CDFF827
:204D900080912068DFF87C8103685F4E03F10805062205F1080102A809F054FA0622A91C78
:204DB000684609F04FFA2878C1091D2700F00F02032AC0F3801537D16079C0F380008142F8
:204DD0001ED12169062202A808F052FF00280AD0694628460AF01AF9002804D031466846E2
:204DF0000AF010F9FF2879D04743D8F80000807AF519002818BF02280AD0012818BF0328A0
:204E10006CD1F25D691C48460AF080F8102865D06B46EA1D294648460AF074F80622694612
:204E3000E81D09F00FFA59E000F00F00052860D16079C0F38000814250D12169062202A879
:204E500008F016FF002849D0694628460AF0DEF8002843D0314668460AF0D4F8FF283DD0AD
:204E70004743D8F80000807AF519002818BF01280AD0022818BF032830D1F25D691C48462F
:204E90000AF044F8102829D040F2024007F09CFB6B46EA1D294648460AF034F806226946E7
:204EB000E81D09F0CFF9D8F80010F05D88760622D8F80000691C143009F0C4F91348144AC1
:204ED00041F20441418041834186124801801249124811600121007803F0D2F821680A68AB
:204EF0000020107105E0002009F064F886200AF051F805B0BDE8F0836F4F0020F44B0020B4
:204F1000CC470020104F0020AC450020204A0020204F0020504F0020595501106E4F00204A
:204F30002DE9F0430546880FADF1140DC0F0C080614C201D006840688768C668406800B117
:204F50008047002F08BF002E08D009F093FA07B1B84706B1B047594808F0CCFB584809F09A
:204F70006DFB584940F60A0CA1F800C0002048800A7B60F303020A7348604A7B4FF001097B
:204F900069F303024A73AB686E7C58801A88A2F60202CAB141F21E07D21B15D041F6E67797
:204FB000D21B012A20D85A7E012E60F382025A7606D01A8B22F47C7242F434721A8313E038
:204FD0001A8B60F30912F9E75A7C012E60F382025A7405D01A8A22F47C7242F4347202E0E9
:204FF0001A8A60F309121A82D5F8088068746246464600E03E46776817B13B889A42F9D11A
:205010007160727B60F303027273E76E47B1FA681288ACF1070393421AD05B1C934217D0A3
:205030002F8CB7B1686205F12002508095F82C3060F3030385F82C3095F82D3069F3030324
:2050500085F82D304A604A7B60F303024A7300E0A0601D4801688768C568009110226946A6
:20507000406B019720F0784040F0805003901748029504F045F809F0FDF915486061607F6F
:2050900068B91448006801684846884701280CD0707B69F3030070730F4F676105E007F021
:2050B000DDF80028FBD009F0C9FC404609F0C6FA05B0BDE8F083C046C81B00200100070637
:2050D00001010E04382400204C13005018000021292D0000E0010010C9B500002DE9FE4F20
:2050F000664D654C664F2868626A066904F1200339460120B04710B1286880688047DFF836
:205110009481DFF8809108F095FB5FEA000B03D004F0E8FA4FF0FF3B002637E000986169E5
:2051300010F8062CA0F10C07032A02D171B388472CE0A06A9DF805C00A213246401E10F815
:20515000013F9C4506D0491E02F10102F7D14FF0FF0A01E05FFA82FA2868BAF1FF0F00F1EB
:20517000080011D0387907F055FCB979012904D0022904BF0099887001E000990870009903
:20519000504608F095FD01E0006880472868C3690DF105016A4601A898470028BED0D9F850
:2051B00000007700C35B23B9761CF6B20A2EF8DB22E00A2E20DAD8F808008047D9F8001075
:2051D000002231F807A0CA53D8F80C1088472E4850F8262066705146304690470646FF20CC
:2051F0006070D8F808008047D9F800107A5A16437E52D8F80C10884708F01CFB0746BB453B
:205210001AD0D8F8080007B9204FE169B94238BF0F1C804782462868016A206A8847626A77
:20523000286817491A4B521C6262C6683846B047D8F80C1050468847E7682968A0681431B6
:205250008FB9D9F800000A270026835B33B10969A06888472968D9F8000014317F1E06F188
:205270000206F2D103E0096988472968143109684FF0FF30884746E7C8190020A41B00209E
:205290005DCA0000AC240020F0FF00008EC2F528E8190020441500202DE9F04F6C4CA068DC
:2052B000ADF13C0D002800F0858004F1B80B4FF00D0A4FF00A094FF0010878E0FBF7E2FB0B
:2052D0002178CA0002EB41125A44B2E8E01004ABA3E8E010E0CAE0C364CA4F1C07F01F01CC
:2052F00083E8640004F10C05627821708A4208BF84F80280FBF7CAFBBDF83630A6212FA263
:20531000284608F0C5FE284609F004F9049F4619B8B208F0DDFC4AA20CCA01F0C7FC4AA251
:205330000CCA01F0C3FC06F037FD009025A2A91B3B0C3046A63108F0ABFE284609F0EAF814
:20535000BDF834704019BF1E04D07F1E14BF21A229A200E031A206990091059B2F1A07F118
:20537000A60108F095FE284609F0D4F84219A0682946521B09F0E4FA099800900A9E019632
:205390000B9F02970C9B0393089B079AA621284608F07EFE284609F0BDF8421902F801AB73
:2053B00002F8019BA0682946521B09F0C9FAA078002883D00FB0BDE8F08FC046232530367D
:2053D000752000C05B2025642E25303375205D2000C046C01B5B33323B316D494E464F3ABC
:2053F000201B5B33303B316D2825733A256429201B5B306D00C046C01B5B33313B316D452E
:2054100052524F523A201B5B33303B316D2825733A256429201B5B306D00C0461B5B33336A
:205430003B316D5741524E494E473A201B5B33303B316D2825733A256429201B5B306D0082
:20545000000000000000F03E0000000000408F400802002030B5401E3BA5ADF11C0D3DD0DE
:20547000401E35D0801E2FD0401E29D0401E0BD0401E05D0401E65D140F22B3136A32AE054
:2054900040F21F3136A326E040F2153002A901F0D3F902A806F0B8FA002400904FF44671BC
:2054B000012236A32846019403F040FD40F2F31022464FF47A73811C009207F053FB41E04B
:2054D00040F2273137A306E040F223313BA302E040F20E313EA3002004462DE04FF441706F
:2054F00004A901F0A9F99DF811308DF8093000248DF80C408DF80B409DF812208DF80A208D
:205510009DF815108DF80F109DF810008DF808009DF814309DF813208DF80E303A498DF87F
:205530000D2002AB586848601A680A6004A806F06BFA40F2093129A3009001222846019438
:2055500003F0F4FC07B030BD70726F6A6563745F7A65726F2E6300C04572726F7200C0463D
:20557000436F6E6E656374656420616E64206164766572746973696E6700C046436F6E6EE1
:2055900065637465642E205065657220616464726573733A201B5B33326D25731B5B306DC9
:2055B00000C046C0436F6E6E656374696F6E2074696D6564206F757400C046C04469736311
:2055D0006F6E6E6563746564202F2049646C65004164766572746973696E67004741502006
:2055F000697320737461727465642E204F757220616464726573733A201B5B33326D2573E4
:205610001B5B306D00C046C0270F00202DE9F04FADF1240D079000F051FF5F48007808F039
:205630006BF95E4D0024012806D90C3804D0401E0ED0401E09D006E008F050FD022804BF7C
:2056500001210C1C06D0696805E005211F2401E0032107246960524A1068C0F38150012841
:2056700006D152F80C0C0127020E07FA02F0044308F0D4FF05F1440AFF2253464018401EF0
:20569000471C28607F1E03F8012BFBD1079A1268002602F0FF03FE2B1DD0DDF81CC09646A7
:2056B00033460EF0FF07FF2F0ED0B84205D3B94203D80122BA40144201D0022069E01643A1
:2056D0000EF0FF020AF802305CF804EF5B1C0EF0FF07FE2FE7D1092002F04AFE07980121BC
:2056F000A86005F1280007F0EBFE00274FF0010BB9462846804600F198050BFA07F004421F
:2057100016D1064204BF07F0FF0141F4C04104D01AF80700079951F82010224801F0B6FC47
:20573000F8B24FF0FF3108F013FAC5F8009001E004202860D8F800007F1C2D1D8742DCD92E
:2057500004A808F04BFF184C184A2078102104AB059008F10C0006F081FE684608F076FFE3
:20577000CDF80C906A4660681149029008F1640006F00CFF0F4951F80D0C20F4F85040F4AC
:20579000005041F80D0C0C4FC1F8FFBF4846C7F800B009B0BDE8F08FBD2400206012002018
:2057B000B43F0050007FC7674802010001DF00002DC200000D300940080009402DE9F04FA3
:2057D0000746ADF1140D0393002F02920E9801910F9C049000F0B680081C00F0B380101C44
:2057F00000F0B080181C00F0AD800498002800F0A980002C00F0AB80206A002800F0A28040
:20581000564D666A281D0068002E00F09B80A16A09F074FB40B2002808BF6FF0020700F073
:205830008D8084F82C002078618800EB80000918143188B2216A88474749086030B928466E
:20585000406809F057FB4FF0FF3777E08B46628823786088DBF8001025789E1800EB010A0F
:20587000701800F1040805EB450002EB4306851876186D18C01805F10C098018401800F1B4
:205890001005204606F01CFA2078C01C8010CAF800002078C01C8010C8F800002078083611
:2058B000C01C801030602078C01C8010C9F800002078C01C80102860227839460AF1040073
:2058D00003F01EFC2278019908F1040003F018FC22780299301D03F013FC23782046414667
:2058F0003246FFF763F8071C12D100955046414632464B4609F0FAFA47B22278039809F1F9
:20591000040103F0FDFB22780498291D03F0F8FB21786288DBF8000001EB810152180021D6
:2059300004F024FC616ADBF8000088470B48406809F0E0FAF8B2992808BF002784F82C7097
:20595000384606E01CB16FF0010084F82C006FF0010005B0BDE8F08F884F0020F4190020A1
:205970002DE9F843614C5A4D5A4EDFF870815E4F94F8E4100846401E0B2864D8DFE800F003
:205990007B2C43062343062343067664042907D001220A2945F8212C14BF0220032004E075
:2059B000202045F8210C0120024684F8E200002045F8390C0827C5F8FF7FC5F8F37F45F8EE
:2059D000392CBDE8F883052914BF09200620002784F8E400376075E094F8E170383D0120FC
:2059F000002FC5F81B0004BF0620002102D00021F160032084F8E400032045F8010C3160C1
:205A1000306880085ED294F8E4103348012703290ED0006845680021602205230091404602
:205A3000A84794F8E400062814BF0A200720CFE700684568002160220523022000904046D7
:205A5000A8470420C4E7FEE72548264F0026012506600E203D6002F073FB022007F004F9BE
:205A700084F8E45084F8E360BDE8F883002038600C25786024E04FF08059D9F8A0010168CF
:205A9000202088472C3D0F2045F8010C41F61D56C5F80360D9F8A401466800214FF4C07281
:205AB0000723022540460095B047D9F8A401C66800214FF4C07207234046B04701203860D9
:205AD00084F8E45004F1780008F0A2FFBDE8F88339400C4038600C40A401001000A00C4096
:205AF0002C500C4004800C4034600C40741300202DE9F04F88468246ADF1AC0D299209F081
:205B100015FA5C4CE67894F80BB0A57A94F80C90071C00F0AB8068460021A42208F0A6FF62
:205B30002801279A55498DF8046005F0030300F4807605F00405ADF800A0B9F1020F01EA16
:205B5000020143EA01024C4B8DF8A0B046EA020100F4C06603EA010246EA020045EA0005F3
:205B70004FF00000279508BF01208DF8370009F0B9F9412809DB207B00280CBF00200820A8
:205B90009DF8991008438DF89900607B002804BF00208DF8380017D001208DF8380004F1F1
:205BB000860120220DF1390008F04CFB0DF1590004F1A601202208F045FB0DF1790004F1BD
:205BD000C601202208F03EFBA07940B18DF8260004F1500110220DF1270008F033FB667924
:205BF0003EB104F16000B91D0622054608F040F868B92079002804BF00208DF8050015D0A4
:205C10008DF8050004F140010DF106000BE08DF805600DF1060005F11601102208F012FB93
:205C30000DF11600A91D102208F00CFBE07930B1B8F1000F03D0279941F0020127910021B7
:205C500000B10121A7789DF89900002F41EA00018DF899100CBF002004209DF899100843F3
:205C700029998DF89900684609F038F92BB0BDE8F08FC046EC100020FBF9FFFFFCFEFFFF51
:205C90000FB42DE9F04106AF8046ADF1280D08F031FE3E1D26F00306361D30F0010001D1B5
:205CB00000F00BFCCDF81A601420ADF816000025CDF80E50FF248DF818407B68CDF81E3071
:205CD00009F008F9064608F015FE30F0010015D008F0C4F94D492A468446062031F80C7FFE
:205CF0004FB14B681B689E4204D0401E02F10102F4D100E0D4B2604608F004FB404606F012
:205D100099FF0146FF2905D0204603220DF11A0304F0C0FD09F0DEF807F07AFBA8460446CD
:205D3000CDF8008008F0E6FD30F0010063D00098A04260D041F2883001A907F093F9009D80
:205D5000002852D109F0C2F80199012746186068019B41464FF00052FAF79CFE00282BD0EB
:205D70000DF122000DF1230102AA05F0FFF9B0B99DF8220003A906F043FF38B9029A08F0AF
:205D900095FD00281CBF029D474615D10299684607F028FB60684FF0005109F093F8019874
:205DB000B0F1FF3FD3D00028D1D009F08FF8301A02D00199814216D208F070F8009E08F0B1
:205DD0004DF9083401463EB1324652F80C0C40B9206842F80C0C2660084608F093FA384677
:205DF00003E00246F1E70190B1E720B92DB1284608F0D4FD01E000F060FBDDF81A000068F6
:205E10000AB0BDE8F04104B07047C0468C15002070B5424C424B2568186855F8183F00229D
:205E30004FF0FF3198473F483F4A416B3F4C88683F4D41791170002609F040F83D4809F031
:205E500039F809F033F83C48026800215171A02301680722CB804A72032103681972002274
:205E700001684A7700230268D3760021036883F85C10012201680A770123026882F85D30FD
:205E90000021006880F85E100EE06068F1B24FF4C072514342185379012B04D1F0B208F060
:205EB00007FB08F0FFFF761C2978F0B28842ECD308F0F4FF2148224A0178224C117006F05E
:205ED000A1FB08F0E7FF2049204B0020087000221F491A7001201F4B08701A701E491F4B5A
:205EF00008701A701B201E491E4B0A701A804FF4A4721D491D4B08801A80FB201C491D4A41
:205F1000088040F648001C491080FB230B80208008F0BCFF19490020087070BDF04E0020F5
:205F3000EC4E0020C8020100714F0020684E00207B4F0020CC470020104F00206D4F0020FE
:205F50007A4F00204E4F0020734F0020744F0020754F0020764F0020774F0020784F002030
:205F7000794F0020524F0020444F0020464F0020484F00204A4F00204C4F00206F4F0020F7
:205F900053480178042900D870472DE9F84F891F2FD0491E012900F29080DFF838A19AF848
:205FB0000200FF2825D008F083FA83460BF16C07786808F067FF804698F80400032818D15A
:205FD000D8F80800047814F0030404D17868BDE8F24F08F053BF4578032C00F102090BF2C8
:205FF0000F160BD035B1387820B93D217170012030706AE038490A78012A66D09BF894103D
:2060100059B32D1FEDB24B462A462146584608F031FF40B93D207070012131702F48BDE836
:20603000F24F08F023BF2E480168884706469BF80610DAF804204FF4C0704143501800221B
:2060500080F839210BF59A7001688079490804F0D5FE24490A68304690470020032CC8F89F
:20607000080016D0204841690878820707D5C0074CBF03200020401919F8000000E081202B
:20609000387223469AF802002A46494608F0EAFE0AE00F480178082903D04946584604F08B
:2060B00073FD484605F0C0FD786808F0E7FE41465846BDE8F44F08F0D1BE002007F07AFF3F
:2060D000BDE8F24F862008F065BFBDE8F18F00BF6F4F0020684E0020794F0020AC45002077
:2060F0004C15002050150020C8020100F0B5514C20780D46E90BADF11C0DC90372D1A80818
:2061100060D2E069216A6A080ED2E80828BF85F0040580F08C80680904D304F061F885F03C
:20613000100584E0002083E0868861B904F11600414A00904FF6FF710223012008F08AFE8A
:206150000146216221B304A800900027019702230293FF220392E28A30460DF11203FEF73C
:206170003BF958B99DF813009DF81220216A12EB002204D04989304605F0CEFF216AE28ADC
:2061900008463B464FF6FF7108F0DCFE01462162A069002918BF85F001051AD168B143689C
:2061B0005BB1E0698088012100229847A069E7694368B88803210022984707F0EDFE85F08F
:2061D000010534E000200146FEF7E0FC18B185F00205012102E0022185F00205207801F0EC
:2061F0004FFF24E003F034FA071C1ED038780126B03811D0401E02D01F3808D011E038796A
:2062100078B97888F9883A8905F086FF0AE03846FEF7DAFA064604E0397907F10800FAF77B
:206230003DFC16B1384607F033FD85F40045A8B207B0F0BDEC10002058FF00002DE9F84F5D
:206250008046D8F808603068D8F80450076CDFF830B14764AB6B6A6C286C17F4F06F194655
:20627000A0EB020934D1F8091ED2780974D3B1B196F821205846801D845C601E814294BFDA
:206290001C1C641E4046214607F050F8A86B001BA86361D105F19800012108F0DBFB404699
:2062B000494607F0EFFA57E00029F8D0404607F03DF895F82D10A86311B900284CD101E0C0
:2062D0000020A86305F19800012108F0C3FB43E0F80A20D24FF0000A544602E0AB6B5B1EB2
:2062F000AB6393B14046012107F020F83068446814F00F04C0F804A0F0D0286B401E286392
:20631000686B401E6863A86BE8B905F19800012108F0A0FB13E0306844680022202904F0E4
:206330000F044260CCBF4FF0200A9A464046514606F0FCFFCAF120008145C8BF8146494638
:20635000404607F09FFAEC77404605F093FC726A12B1404621469047B8090FD3A96A69B177
:206370000F46404607F010F8A86238B996F820205946895C4046C91905F096FBBDE8F88FCC
:2063900028FE00002DE9FC4705466E68D5F8088037780FB1B76B1FB14FF0FF30BDE8FC8701
:2063B00031630024F477171C74631BD006F13C0908F036FB82466946484606F06EF80028C7
:2063D0001ED45046FAF762FB9DF80000316B0870306B736B7F1E00F10100306303F101009E
:2063F0007063E5D17078726B316B0128A1EB0201316303D1F36828469847726B144659E06B
:20641000B763D8F80010086B40F400700863D8F80010886B40F4FA6088635046FAF736FBEC
:2064300006F5947007F074FC707806F5947768BB08F0F6FA96F82D1069B1716B59B1B16B06
:2064500049B1B463FAF722FB06F5947007F050FC706BBDE8FC87FAF719FB716806F1E80506
:20647000284608F088F80028F2D0B4632846214608F081F80028EBD0384607F039FC10271B
:20649000716B306BF777401A3063E1E708F0C8FA96F82D1061B1716B51B1B16B41B1B463B8
:2064B000FAF7F4FA06F19800012108F0D3FA01E0FAF7ECFA2046BDE8FC87FEE72DE9FF47F0
:2064D000484C94F8E700002876D13E4E01273C48F57C84F8E770736884F8E6500068C4F809
:2064F0001031C0F3801084F8E800684608F014FA002504F10C0001956B468DF80050324933
:2065100002952A4605F0E0F9304904F130006B462A4605F0D9F92E4904F154006B468146D8
:206530002A4605F0D1F9B16838468847DFF8B0802848327D08F104030078284E1868C0F36F
:20655000815A22B1BAF1030F04D184F8E170BAF1030F17D0BAF1020F14D0BAF1010F0ED041
:20657000022006F0AFFD1C480068016804208847012804D030683221B1FBF0F10DE006F0C7
:20659000B9F812E0022006F09DFDBAF1030F0CBF4FF47A7142F210713068B1FBF0F1484678
:2065B00008F034FA484608F033FA40460068C00802D2284606F086FD00200090BDE8FF87A6
:2065D000141009404C010100CB9900001D8C0000E5A60000BD240020E0010010A82400207A
:2065F000B03F0050741300202DE9F84F5FEA00091C46924600917DD0081C7BD0BAF1000FB5
:2066100078D0002C7BD0206A002873D03F4D616A281D006800296DD0A16A08F06FFC40B2EC
:20663000002808BF6FF002055FD084F82C002078618800EB400009180C3188B2216A884780
:206650003149AB46086030B9DBF8040008F052FC4FF0FF3549E08846668865882178D8F8A3
:2066700000008F192D183F1806EB41063618204605F026FB2078C01C8010286020783F1D44
:20669000C01C8010386020780836C01C8010306022784946281D02F033FD28463A4633461D
:2066B000014608F0D3FB45B2227800983B1D194602F026FD22785046311D02F021FD2178A1
:2066D0006288D8F8000001EB41015218002103F04DFD616AD8F800008847DBF8040008F0C1
:2066F00009FCE8B2992808BF002584F82C502846BDE8F88F1CB16FF0010084F82C006FF078
:206710000100BDE8F88FC046884F0020F41900202DE9F041FF2807461ED108F0A3F810F0D5
:20673000070F16D0042006F005F908B104200AE0012006F0FFF808B1012004E0022006F08A
:20675000F9F820B10220BDE8F04106F00FB907F031FC0020BDE8F08106F008F98046012F6A
:20677000D8F80450334E04D0022F29D0042F3DD0EFE7022006F0DEF880B1022006F0F6F82B
:20679000074601207C6806F0D5F828B1A0683118A86808F01BFC88B13846DBE7042006F0F8
