:2000000000400020D5BF000001C9011001C9011001C9011001C9011001C9011001C90110CA
:1C00200001C9011001C9011001C9011001C9011001C9011001C901103FC9011089
:20003C002DE9F04F5E4C04F120012046ADF13C0D0BF022FD0025A84645A040F2BF11009599
:20005C0001220D9046A3CDF8048008F0F5FF04F1400630464146E56200F0D4FC4046666219
:20007C000EF052FA606140460EF08AF8A06106F07FFA0EF043FB012740F2053039468DF814
:20009C002D700DF12D02ADF81A8002F0C1FE40F2063002210DF11A0202F0BAFE651C4FF477
:2000BC00427039462A4602F0B3FE04F14C0640F207300E21324602F0ABFE4FF416738DF89D
:2000DC002E704FF4C870ADF820803946ADF81E300DF12E02ADF81C004FF47A734FF444701E
:2000FC00ADF8223002F094FE40F21130022107AA02F08EFE40F2123002210DF11E0202F0FD
:20011C0087FE40F21330022108AA02F081FE4FF4457002210DF1220202F07AFE04F16F0078
:20013C00414620220AF0E6F84B35233640462A5C401CC0B229180B78092B18BF082B01D17B
:20015C001F2A2FDB8018C0B22028F0DB2FE0C04670726F6A6563745F7A65726F2E6300C097
:20017C00496E697469616C697A696E67207468652075736572207461736B2C20686172647A
:20019C00776172652C20424C4520737461636B20616E642073657276696365732E00C04634
:2001BC00C0070020491C521E304609F02FF80D98009640F207213A467DA3CDF8048008F05B
:2001DC003BFF854D102006224FF44873294605F069FC102007224FF44873294605F062FCBF
:2001FC00102008224FF44873294605F05BFC102009224FF44873294605F054FC10203A4613
:20021C001E23294605F04EFCC246CDF814A038468DF832008DF82F7005AE8DF830704FF4DE
:20023C0081620423D24D8DF831A010200096294605F038FC0DF12F004FF480623B46009062
:20025C002946102005F02EFC0CA80090294640F202423B46102005F025FC0DF13100294636
:20027C0040F203423B460090102005F01BFC0DF13200294640F206423B460090102005F04F
:20029C0011FCCC4910204FF0FF3205F00BFCCF4910204FF0FF3205F005FCCE4ECC4F10206F
:2002BC001323CD4A00903946019605F0FBFB04F15A0042461523C9490090102005F0F2FB81
:2002DC00C74D287880000EF01DFCC64E0146B160C1B14FF6FF700CF0BFFC287880000EF050
:2002FC0011FC0146316169B14FF6FF700CF0B4FCBD49102006F11402009007230191394674
:20031C0005F0D0FB09A84146042209F0F3FF404609A90DF033F90AA84146042209F0EAFF16
:20033C0001200AA90DF02AF9C74D69782878A9B904F1300129620DF087F805F15407CDF873
:20035C0000A0024605F14400019005F11C060297BE490396AB78102005F0A4FBBC4904F19C
:20037C003802102005F09EFB20780DF06DF8CF490246102005F096FB20780DF065F8CC4952
:20039C000246102005F08EFB0CF02EFCCC4FC948C949CA4DCB4EDFF83083A7F11D03016014
:2003BC0019684560C1F38005002D6FD116E0C0464E616D6520696E20616476657274446196
:2003DC0074612061727261793A201B5B33336D25731B5B306D00C0467DCE0000C249B1E8AA
:2003FC002C105C30A0E82C10B1E82C10A0E82C102EC94FF0010980E82E0006F14905FF237F
:20041C00AC48C5F8AB3F0346C16EB3F86A20C5F8FF9F4346A3F1EA0008F0F8FEA548806F4C
:20043C00804742F22B0042F60B3345F8550CBC4945F8513C4FF480720A6045F821AC45F8B1
:20045C003D9CC5F8B39FC5F8F39FD5F8F30F00F0DDFAA7F11D02116841F004011160B14AE1
:20047C00116821F0F05141F03451116000F0D2FAD7F8FF0F0CF042FD0EF00DFB0EF014FB87
:20049C000CF056FD0EF00AFB0EF01AFB00F0BEFAA549A1F10C031A685B68120442EA1342C8
:2004BC000832CA604FF480370F610A6842F4A0220A60D1F8F02F22F01F0242F02502C1F851
:2004DC00F02F00F0A7FA012008F0E4F9B14604F5847B04F1B806206ACC4A00214FF0FF3386
:2004FC0000F09CFA0028F6D0002004900BA904AA06A80CF085FD002840F08B80BDF81850AA
:20051C0001200746102D7FD120789DF82C1088427AD1049D28884FF6FF71814274D02B7896
:20053C00913B63D01F3B6FD16878162822D028797E2814D07F280AD00090002040F2C73170
:20055C007DA301903A460D9808F076FD2BE02889002240F2C231009081A30192F2E7287A79
:20057C0040F2BD31032285A3009000200190EAE7A537000028790023009040F2A531022284
:20059C000D9801938CA308F057FD606BA0B94FF6FD709C499C4A00900023102005F082FA96
:2005BC00C3B2606B43B1297905F1080000F03AFA2AE0C04619DA000040F0010060633846B2
:2005DC0007F08AFB0027A5621EE0C046C9DC00001DD600004C0301006C1000201D9E000012
:2005FC00694F0020601600207800010068780E280AD10020009005464FF462713A46CCA307
:20061C000D98019508F018FD049810B10FB10EF02DFA606A00F00AFA00287FF45CAF606A06
:20063C0000F008FA824601469AF80800C01E00F07881801E5AD0401E0CD0801E00F0E88044
:20065C00083873D070E1C046880C002037C200003DDF0000606B4008C0F06681A76A002FF1
:20067C0000F06281A07807F10805401CA070DF4900957A883B79102005F014FAC5B2162DA2
:20069C0024D0676B042D21D037F00107676308D14FF6FD705B495C4A00900123102005F0AF
:2006BC0001FA284607F018FB3EE1C0465188011031810110D415002041EA00004BEA000070
:2006DC002D1009400C500C40EA000E40A06A00790090A07801900D984FF4826102229DA3AD
:2006FC0008F0AAFC20E1C0461C000100CF7A01F10905002F0CBFA3A0A5A000900020019010
:20071C000D980122A4A340F2EF2108F095FC00200090B5492A880023102005F0C3F903E19B
:20073C0000100E4000300940142009400820002103F072FEF8E0C046526563657669656498
:20075C002047415454204D6573736167652E204F70636F64653A2030782530327800C04699
:20077C004D54552053697A65206368616E67653A20256420627974657300C046466C6F775E
:20079C0020636F6E74726F6C2076696F6C617465642E204F70636F6465206F66206F6666AC
:2007BC00656E64696E6720415454206D73673A2030782530327800C04F7574676F696E672B
:2007DC00205246204649464F2066756C6C2E2052652D7363686564756C65207472616E7367
:2007FC006D697373696F6E206F66206D73672077697468206F70636F6465203078253032BA
:20081C007800C0469DB700001FE400000F0000C00220C9F83000D9F800008008F8D2676912
:20083C00A26900235D0035F8080039460DF0BBF95B1CDBB26F49142B4853F3DB00256D486E
:20085C0030F815106A480DF069FE0CF0B1F9624909F018F86F1C46F82500FDB2142DEEDB18
:20087C000025AF00B819F159406806F0F7FA0CF083F95AA20CCA05F0E0FD0AF05FF86D1CE8
:20089C00EDB24BF80700132DEBDB524800255BF8251006F0E5FA6D1CEDB2132DF7DB4C4962
:2008BC0008F0F0FF5449E06001200CF067FEB8F82800B8F82A10A0800004E1804218E261F2
:2008DC00401840000DF0F4F80146404808F0DAFF4A49206100200CF051FE208968B9002072
:2008FC0000904FF4167100224FF47A734FF4C8700BF0BAFF08B9012020814148006E002166
:20091C0041800EF0CBF800F081F805460EF0D8F834492B276B20087028460F7000F07AF896
:20093C0002E0487A04F060FE50460CF0AFF970E648434920436F6D6D616E6420436F6D70B3
:20095C006C657465204576656E74207265636569766564005265747279696E67206D65738F
:20097C00736167652077697468206F70636F6465203078253032782E20417474656D707451
:20099C0020256400446973706C6179696E6700C053656E64696E6700426F6E644D6772202D
:2009BC005265717565737465642070617373636F64652E20576520617265202573207061EC
:2009DC007373636F6465202530366400001B374C0000984100000000002474497B14AE478F
:2009FC00E17A743F05500C4081D00000DDFE0010E09C410050080020CC070020D0070020D1
:200A1C00D4150020DFF800F0A1B60110DFF800F085BF0110DFF800F061C00110DFF800F0A6
:200A3C00F99B0110DFF800F089840110DFF800F04FBF0110DFF800F0F1BF01102DE9F04F4D
:200A5C00CD4C04F118012046ADF1340D0BF014F800264FF6FF7066700121208204F1A400FA
:200A7C000CF096F9022104F1C8000CF091F9042104F1EC000CF08CF94FF0040A04F1440854
:200A9C0010224046314684F802A009F033FC04F1540910224846314609F02CFC04F11C0703
:200ABC003E6004F10A052E70E671267207206072CDF80080DFF8F882022210200346414638
:200ADC0004F0F0FF102003224146CDF80090034604F0E8FF1020524641460097134604F08F
:200AFC00E1FF4FF0010B4FF0030905F12A00079005F17900089005F11E00099005F15A00A9
:200B1C000A9024350B9501E00CF0C4FAA069B24A31464FF0FF33FFF781FF071CF6D00596A4
:200B3C0006A80DF11A0105AA0CF06AFA002840F0BC81BDF818102078102940F0B2819DF888
:200B5C001A10884240F0AD81059D29884FF6FF728A4200F09B812B78A23B00F07C812E3B70
:200B7C0040F09F81A978B046002900F03781891E00F00481491E012940F2D780891E00F054
:200B9C009A80491E6ED0491E5BD0083900F05281891E40F0558194F83A30A888052BADF83C
:200BBC00080046D0B8488DF812B00DF0BFFF94F83A0001281ED004281CD003280DD00228D2
:200BDC000BD00598C188ADF80A100189ADF80C104189ADF80E10818927E0A08FE58FADF848
:200BFC000A00B4F84030ADF80C50B4F84210ADF80E301AE0A08FE9888842D8BF081CADF80D
:200C1C000A002989E08F8842D8BF081CADF80C006989B4F840008842D8BF081CADF80E0041
:200C3C00A989B4F84200884200DC0846ADF8100001E08DF81260A949102002AA04F032FF04
:200C5C00FEE0A7480DF072FF6B78002B40F0F880E88860822889A0826889E0828A480DF040
:200C7C0065FDEDE0AA88B349102004F01BFF07984146062209F03EFB6682A682E682A879A4
:200C9C00207381480DF052FF95480DF04FFFD8464FF6FF702379208253B9A879082812BF28
:200CBC0084F801A00520607040460DF05FFDC7E084F80190C4E06B787BBB291D07980A685F
:200CDC000260898881800623637068892082E8896082288AA082688AE082E878E07294F83C
:200CFC003A00012818BF02280BD19E4910201F2204F0D8FE4FF47A7180B2414362480BF0ED
:200D1C003FFE688900909649CDF804A0EA7810202D1D2B4604F0C6FE95E06878312840F0CE
:200D3C008680E67084F801A08DE06B78002B7ED1A878E3896178032812D0E078257923B910
:200D5C00012814BF2671E67006E0054304D0864819460BF015FE61780729E3D1062067E027
:200D7C00062907D0E578002D08BF84F801906AD002205DE007205BE0880C00206B78002B36
:200D9C0055D1EB786178ABB9022920D007291ED0062902D12079012819D1032917D07248BD
:200DBC000DF0C4FC98B958460DF0E0FC0FE0C046FFDE00000CF048FB0246A07967490090E0
:200DDC00089843460190102004F06CFE68706D78002D2CD134E0C046070000806B7833BB56
:200DFC0062485D49009002221020034604F05AFE5F484A46584900901020034604F052FEE9
:200E1C00ED1C099829680160A9888180207884F801B00CF019FB02465B460A9D60794F4912
:200E3C0000901020019504F03DFEC5B25DB10820607008E0AA8847491020052304F032FE6E
:200E5C00B8F1010F2DD1256A002D2AD02D6845B36078A84725E06879132822D128890128C7
:200E7C0008D1607B022805D11D480DF05FFE0CF011F916E03B491020052204F013FE81B2D4
:200E9C0017480BF07DFD0CE0500D00206888C00B07D338485246304900901346102004F0C6
:200EBC0001FE059808B10DF0E1FD2579E078790830D355EA00032DD02046007895B9E179A7
:200EDC00257A8DF808100B9A8DF8095013680DF10A052B609288AA8006E0C04605160110C8
:200EFC00740D00208DF80890617A8DF81010A17A8DF811100CF0A8FA1549024602AB1020B6
:200F1C0004F0D0FD30B10820256A607015B12D6805B1A847B80803D31749304608F060FECA
:200F3C00F808FFF4F3AD677B7F1E05D07F1E3FF4EBADEBE545BA0000CDF800B0A08FE18F63
:200F5C00B4F84020B4F842300BF08EFCDEE5C04659440110C1170110756F00000945011023
:200F7C00497300008DE200002C0D0020CC0C0020DC0C0020A40C0020C20C00202DE9F041CC
:200F9C00066890460F460DF067FB4FF0FF35012410B90DF093FB30B184F00104E0B200283D
:200FBC0008BF002100D071680D4C20460DF04BFB90B9B7F1FF3F0CD006200CF0E3F83946FB
:200FDC00404608F081FB074606200BF0ADFE07B9002520460DF09EFD2846BDE8F081C04675
:040FFC00D4170020E6
:20100000B41200001810000015AB0110FDB301106DC00110FDAE011099B5011000000000F7
:08102000000000002D0000009B
:20102800B01200003C100000B1C00110A9BF011067C0011069B80110000000000000000035
:041048003000000074
:20104C00B012000060100000BDC00110CDB30110D9BD01106DB3011000000000000000005B
:04106C00310000004F
:2010700000000000A41B002004000000000000000000000020000000E8C90110300000006B
:2010900028100000AC1B00200400000000000000000000000C000000D8CA01101800000046
:2010B0004C100000B41B002004000000000000000000000024000000F0CA011018000000CA
:2010D00000000000BC1B00200400000000000000000000001000000018CA01102C000000D6
:2010F00000100000CC1B0020040000000000000000000000200000006CCA0110240000003A
:20111000FFFFFFFFD41B00200400000000000000000000002800000090CA011024000000F9
:20113000FFFFFFFFDC1B00200400000000000000000000001400000008CB01101800000078
:20115000FFFFFFFFE41B002004000000000000000000000058000000B4C901103400000046
:20117000FFFFFFFFEC1B00200400000000000000000000001000000020CB01101800000014
:20119000FFFFFFFFF41B00200400000000000000000000001C000000B4CA01102400000041
:2011B000FFFFFFFFFC1B00200400000000000000000000003800000044CA01102800000069
:2011D000FFFFFFFF041C00200400000000000000000000005400000078C901103C000000DD
:0811F000020000009803010059
:0411F80001000000F2
:0411FC0000000E00E1
:0412000000000F00DB
:0412040032000000B4
:0412080001000000E1
:04120C00F81A0020AC
:0412100000020000D8
:0412140000000000D6
:0412180001C90110F7
:04121C0000000000CE
:0412200000000000CA
:0412240008000000BE
:0412280000002200A0
:04122C00481900203D
:0412300000000000BA
:0412340000000000B6
:0412380008000000AA
:04123C00B81A0020BC
:0412400000000000AA
:0412440000000000A6
:04124800080000009A
:04124C00000000009E
:04125000000000009A
:041254000000000096
:041258000000000092
:04125C00010000008D
:04126000E019002071
:041264000600000080
:041268000100000081
:04126C007C180020CA
:04127000000000007A
:041274000000000076
:041278000002000070
:04127C00000000006E
:02128000290043
:02128200010069
:02128400250043
:02128600300036
:02128800310033
:02128A002D0035
:02128C0001005F
:01128E00015E
:081290000300000064030100EB
:0812980000000000000000004E
:0412A0000000010049
:0412A4000000030043
:0412A80013C401105A
:0412AC00CFE400008B
:0412B000B812000070
:0412B400B81200006C
:0412B8000000000032
:0412BC006C1B002087
:0412C00087E60000BD
:0412C4002000000006
:0412C800AC02010073
:0412CC009801010084
:0412D00029C101101F
:0412D400CFD900006E
:0412D80007DC00002F
:0412DC00A1C7011095
:0412E000A3C701108F
:0412E4000000000006
:0412E800E701010019
:0412EC00E4FE00001C
:0412F000FCFE000000
:0412F400CCFE00002C
:0212F8000200F2
:0212FA000900E9
:0212FC000100EF
:0212FE000000EE
:0113000001EB
:0413040015E60000EA
:041308003DCC0000D8
:04130C0039DB0000C9
:04131000B5CF000055
:041314004FD00000B6
:04131800BDBE000056
:04131C00C59900006F
:04132000BDE8000024
:041324002DB50000E3
:0413280015C70110D4
:04132C0025C70110C0
:201330002DE9F84FDFF82885DFF82815DFF8286588F800000822002008600D23DFF81C05EA
:2013500040F22231027043808180DFF814050660B77EDFF810050770FF2FF17E417008BFBF
:20137000FF29327F8270737FC370B57F0571F67F467115D1FF2A08BFFF2B11D1FF2D08BFC2
:20139000FF2E0DD1DFF8E0140A7802704B7843708A788270CB78C3700A7902714979417129
:2013B000DFF8C81402780A70FF2543784B7082788A70C378CB700279DFF8B4340A71407904
:2013D000DFF8B0244871DFF8B0140D704D708D70CD700D714D710021DFF8A0041180466B70
:2013F000DFF89C14707808703278DFF898141A70B0780870B2681079DFF88C24411E117095
:20141000F078DFF88814DFF888240870F068106008B90CF033FE3069DFF87844206008B9C3
:201430000CF02CFE2068DFF8707401688847226852F8041F38468847DFF86004DFF8601431
:20145000386279627069DFF85C14086008B90CF015FEB069DFF85014086008B90CF00EFE2A
:20147000F069DFF84814086008B90CF007FEDFF840B4DFF840649BF804000DF085F93060BE
:2014900008B900F043B99BF80500DFF82C740DF07BF9386008B9306835E19BF80600DFF898
:2014B0001C440DF071F9206020B930680DF07CF9386828E19BF80700DFF804940DF064F9E6
:2014D000C9F8000038B930680DF06EF938680DF06BF9206817E1DFF898130A789BF8000036
:2014F000DFF8E0A3921C504380B20DF04DF9CAF8080058B930680DF057F938680DF054F922
:2015100020680DF051F9D9F80000FCE0D8480078002800F00081BBF80210DFF8ACB3484388
:2015300080B20DF031F9CBF8040078B930680DF03BF938680DF038F920680DF035F9D9F82F
:2015500000000DF031F9DAF80800DCE0C84800780DF01AF9DD49086080B930680DF024F9AD
:2015700038680DF021F9D9F800000DF01DF9DAF808000DF019F9DBF80400C4E0BC480078E0
:20159000182148430DF000F9D14A1060B0B930680DF00AF938680DF007F920680DF004F9D6
:2015B000D9F800000DF000F9DAF808000DF0FCF8DBF804000DF0F8F8C448A3E0AC480078CA
:2015D00040010DF0E1F8C3490860D0B930680DF0EBF838680DF0E8F820680DF0E5F8D9F8BF
:2015F00000000DF0E1F8DAF808000DF0DDF8DBF804000DF0D9F8B54800680DF0D5F8B44889
:2016100080E09B48007800010DF0BEF8B2490860F0B930680DF0C8F838680DF0C5F8206808
:201630000DF0C2F8D9F800000DF0BEF8DAF808000DF0BAF8DBF804000DF0B6F8A348006801
:201650000DF0B2F8A24800680DF0AEF8A14859E08748007800010DF097F8A049086010BBCC
:2016700030680DF0A1F838680DF09EF820680DF09BF8D9F800000DF097F8DAF808000DF0AD
:2016900093F8DBF804000DF08FF8904800680DF08BF88F4800680DF087F88E4800680DF09E
:2016B00083F88D482EE072480078302148430DF06BF88B4A106070BB30680DF075F838683C
:2016D0000DF072F820680DF06FF8D9F800000DF06BF8DAF808000DF067F8DBF804000DF06C
:2016F00063F87A4800680DF05FF8794800680DF05BF8784800680DF057F8774800680DF0F0
:2017100053F8764800680DF04FF800200CF0B6FC4FF4804195E03168012008713268157368
:201730003068457331688D733068C57331680D7400213068457400203268D172A0223168FC
:20175000487103213068C28001720720326850720021306881722821306801224182C27621
:201770000020316848770022306880F85E20012132681177012031684B4E81F85D000122A1
:201790003868027139680D733868457339688D733868C57339680D74002138684574002078
:2017B0003A68D172002239684871386882724FF420703968C88008818A7401213B68D974CF
:2017D0002268157321684D73226895732168CD7322681574002221684D7401212368DA72CB
:2017F00000232268117121684B712168C88008818B7205202268937421683A4AC874106897
:2018100080473168054608688047316851F8042F0020904719481D4BC16818780A8832493B
:2018300002430A802846314A136898470C2130480DF08AFC10480DF083FC09F0A9FB4FF4AA
:20185000005198F80000BDE8F44F06F0F7BC00BF6E4F0020044F0020B63F0050604E0020E4
:20187000084F00202C4E0020E81200503C4E00207B4F00200C4F0020344E0020F803010050
:201890006D4F00206B4F0020724F00206C4F0020F04E0020F44E00207C4B002099E700009F
:2018B000B9E70000F84E0020FC4E0020DC230020601B0020104F0020144F0020184F002065
:2018D0001C4F0020FC240020684E0020004F0020804E0020844E0020884E00208C4E002018
:2018F000904E002040150020544F002044150020F84D00202DE9F84FD74CA178FF2904BF40
:2019100000200CF0BBFBA0780CF040FE044604F1680504F190062968086810B10021E18315
:201930000CE0A87B002804BFA97E002906D13078002801BF207F0128608CE0832189E08BBA
:201950004118491C618120460DF0F6FB01281EBFC2480178012904D121890020491CE08369
:2019700061814FF6FF77A87E01280DD1AA8B618920890DF0DDFB38B1218960894A1C93B2C9
:2019900098421BD0A88B0FE03078012816D17288618920890DF0CCFB80B1218960894A1C1D
:2019B00093B298420AD0708892B2904206D03818608180B20DF0B8FB3F18E78304F596795E
:2019D00099F8040020B120890021401CE183608104F12E07A87E01283ED12289A88B521C52
:2019F00092B2904238D1608104F1860120460DF097FBA88C608400212177E183E0896189DE
:201A10004118A181A88B21890DF08EFB8046B988288C6A8C01FB0808E88C8A4204BF398956
:201A3000884202BFAB8CF9888B4207D000090090AB8CA179520800200DF06EFBA87F387016
:201A5000698CB980A88CF8802046E98C39810DF05FFB0220A87601E0B7F80480B4F81EC0D2
:201A700022687F4ED2F80CE00CF1010000FB08F340F6C41000FB03F18E44C2F80CE0366846
:201A9000DFF8E0E13678BEF80080774AB609032E11D1D67BF60748BF4FF000080BD408F1B3
:201AB00001081FFA88F6012E12BF668AB9F8066006F2DC5600E0668A5E434FF4C87AB6FB9E
:201AD000FAF6761C6661AEF80080A3614FF0180894F806A084F820C008FB0AFADFF88CC16B
:201AF000DCF800E023680EF1080656F80AB0C3F810B094F806A008FB0AFACDF800A0D3F89E
:201B10000CB0D4F814A0ABEB0A0ADDF800B046F80BA094F806A008FB0AFA56F80A609E6072
:201B30000EF10C06A37908FB03F30EF10C0EF65C06F0F00646F002060EF803604FF0000A28
:201B5000DCF800E0A6790EF1020308FB06F623F806A0474BA6791B68760103F1140AD4F855
:201B700014B05AF806A00AEB4B0A03F1140B4BF806A0AD7E022D0BD1A5796D0103F1140683
:201B900097F800B056F805A000FB0BAA46F805A0BD88D27BA779D60737D508FB07F70EF1D5
:201BB0000802D659A6F5A86A0EF1080646F807A0A77908FB07F7D2592768511A3961BA6043
:201BD00003F11402A1794901575807F5F667575003F11401A27952018958C9F80010684304
:201BF000244A156BA779296803F11C067F01401AA0F51670F0512049A07903EB40100B78A7
:201C1000012B14D10121C17214E003F114027F01D1592A464243A1F5E661A2F516729142E2
:201C3000DDD3082120460DF06FFA012011E0916A4A78C272A179DCF8000008FB01F281186F
:201C50002268516007200D49087020460DF058FA0020BDE8F28F00BF684E0020784F0020CD
:201C7000084F0020342500205C4D0020804E0020844E0020F8030100734F00206F4F0020FF
:201C9000BB482DE9F84F0025BA4CB849056094F8E200002800F06581012800F02F81B64E0A
:201CB00002283CD0032840F05C8151F8250CD4F8B8100029A0F5C060C4F8D400B8BF494228
:201CD0000028B8BF4042814226DA4FF08057D7F8A4014568B4F8BC0030214FF47F420823F1
:201CF00000903046A847D7F8A4014568B4F8C00004214FF4F802122300903046A847D7F8F7
:201D1000A401B4F8D070456820214FF440620A2330460097A847012584F8D8501CE151F816
:201D3000258C0CF0D0FD2F4600B901273946934F38680028FCD0B146012609F10409D9F8D8
:201D50002CA03E6009B10CF0C4FDCAF30720C4F8BC000CF0B8FDAA4600B9B2463B68002B16
:201D7000FCD0D9F800B0BAF1000F3E6001D00CF0B0FDCBF38440C4F8C0000CF0A4FDAA46A9
:201D900000B9B2463B68002BFCD0D9F81C90BAF1000F3E6001D00CF09CFDC9F38120C4F894
:201DB000D000B8F5C061C4F8B81000F09C8094F8D80068B9C4F8D410D4F8C000C4F8C800B0
:201DD000D4F8BC70C4F8C470D4F8D030C4F8CC30D4F8D400D4F8BC30002854BF02226FF071
:201DF000010204F1C8010F6800EB40008018421000EB927207EBA2000860D4F8C810C4F83B
:201E1000C43000291CDD1E293CDDD4F8CC0030B93429B4BF15391E21C4F8C81025E02A2972
:201E3000BABFD4F8C8000B381E20C4F8C800D4F8C4003F28B4BF401C3F20C4F8C4001FE0DC
:201E5000D4F8CC00032812D011F10B0FC6BFD4F8C8000B30301CC4F8C800D4F8C4000028D5
:201E7000C4BF401E051CC4F8C450032508E011F1150FC6BFD4F8C8001530301CC4F8C8001C
:201E9000C4F8CC504FF08057D7F8A401B4F8C43030214FF47F424568374800930823A84702
:201EB000D7F8A40104214FF400321123456832480096A847B4F8C860D7F8A40104214FF474
:201ED000F802122345682C480096A847D7F8A40120214FF440620A23B4F8CC604568264863
:201EF0000096A84701E084F8D85040F2FF50404502D8801C40452FD2082030E051F8251C04
:201F10001F4F4BF2F5204843060A3868C0F3814001280CD11B480068006880470AF042FB0B
:201F30000CF0DDFC3111C010484306EBE03694F8E50030B91448006820F07F40361876085F
:201F500001E084F8E5501148310C0660012741600F4D8760287808B90B2000E0052084F8CA
:201F7000E40003F015FCBDE8F88FC0462D400C402C500C402414002000A00C4000800C40A6
:201F9000B43F0050EC010010102009403C600C40910201002DE9F04F09AFADF13C0D089070
:201FB0000A92388809911E46ADF81800101C08BF002000F06C81017800274FF0010B401CC3
:201FD0004FF0FF39B846DA460A9058E1252940F04D810178401C0A902D2918BFADF8068076
:201FF00004D10178ADF806B0401C0A9030291CBF4246434604D10178401C5A465B460A9068
:202010002A29CDF800804D4617D1049330680A9BCDF80890C01C20F00300001D306050F888
:20203000044C1978002C009403F101000A9018D5ADF806A06442009413E044460AE0600027
:2020500000EBC4004018A0F130040A9801780094401C0A90302901DB3A29F0DBCDF808903F
:2020700004932E2929D10178401C2A290A9011D13168CDF80880C91C21F00301091D31602D
:2020900051F8045C002D48BF454601782B46401C0A9011E0454643460AE0680000EBC500E1
:2020B0004018A0F130050A9801782B46401C0A90302901DB3A29F0DB02930AB122460492BF
:2020D0006C2904D04C2918BFADF8048004D10178ADF804A0401C0A900BA8CDF80C800FABC7
:2020F00007906429059379D0692977D0BDF818C0752965D0782961D06F295DD0702946D04C
:20211000632936D073291AD00A98401E0A900998012812D961490C68B5F1FF3F03D0A84289
:2021300088BF6D1C00D8099D029508A80AA932466B46A0473F18039865E0454617E03068E6
:20215000C01C20F00300001D306050F8040CBCF1010F014608B94FA0014607910CF048FAAA
:202170000390B5F1FF3F4FD0A8424DD9039528464AE03068C01C20F00300001D306010F83D
:20219000040C8DF82C005D46039558463CE0082035680490E81C20F00300001D306050F814
:2021B000041C082210230FA808F006FC401E079040210170079823E0082302E0102300E058
:2021D0000A233068C01C20F00300001D306050F8041CAA42BCBF2A1C04920DE03068C01C82
:2021F00020F00300001D306050F8041CAA42BCBF2A1C04926FF009030FA808F0DDFB0790DB
:202210000599081A0390009C241ABDF8065000945DB906E008A8202109AA0BF0A6FA7F1C0C
:20223000009C641E0094F5D50398401EB0F1FF3F03900FD1BDF8060001281CD10098401E00
:20225000009018D408A8202109AA0BF08EFA00987F1CF4E70798017809AA08A80BF085FAC8
:202270000798401C079003987F1CDEE708A809AA0BF07BFA7F1C0A980178401C0A90002919
:202290007FF4A4AE089808B14146017038460FB0BDE8F08F286E756C6C2900C0DC0301000B
:2022B0002DE9F84F0C46E00788B00BD50CF054FA28B100218160AB48006800B1804784F0F4
:2022D00001004CE1A0070FD500210023069105910491039302910191009101223C200CF068
:2022F0000BFF84F002003AE11D2560079E4E9F4F40F18A80002107918B469D488178FF29E5
:2023100004BF00200BF0BAFE386890F8A0000CF03DF980463868C07A98F82691022818BF35
:20233000032808F5907A06D106F10D000CF0E0FE08B906F1070B514648460CF0D5FE88B3AD
:202350003868807A002818BF012804D1314650460CF0C6FE04E05246494630460CF0BCFED2
:20237000FF2834D005FB00F906EB090506225146E81D0BF0CBFF16F80900396840F00209AE
:20239000E81D07900622887E00F0010088F8260105F1010A386800F1140108F590700BF02C
:2023B000B5FF14E0514648460CF092FE78B15246494630460CF090FEFF2808D006F10D0160
:2023D000454348190CF094FE08B149F0020908F12C004B4601780691428912090592012213
:2023F000B8F822100491C0880799029140080390CDF804B0CDF800A0002098F806100CF060
:202410007BFE84F00400AAE020060FD50021002306910591049103930291019100910122B2
:202430003B200CF069FE84F0800098E0E0043BD5F11D06F10D000CF047FE38684179012997
:2024500023D1017A012918BF04291ED1C17A022918BF032919D1817E00F1140230460CF015
:202470003BFEFF2811D04543354405F10D000CF03FFE50B9E91D05F10D000CF025FE3868FD
:202490000622E91D14300BF041FF3A4842683A4800784FF4805109F01DFE10B18E2007F0CB
:2024B000F5FD84F480505AE0A00505D50CF00BFA324901200860FEE7600504D505F069FA99
:2024D00084F480604BE0600405D5812007F0DEFD84F4804043E0A10440D5294D286810B1DC
:2024F00000200BF0CBFD274E4FF0FF3028600CF0E7FD3168244D51F8202F6846904723490B
:20251000234B486A8A6A009001920293C86A0268086A0392ADF810000A6B1178002904BF9D
:202530005068002805D19068002804BFD068002806D02970506868609168A960D068E86021
:2025500029463568134A2E6813486B46B0471349086003F075FB84F4005000E0002009B0C1
:20257000BDE8F08F204F0020AC450020104F0020684E0020784E00206E4F0020FC00204310
:20259000044F0020F04E0020684500201019002059E700002C4D0020E0230020EC4E0020EE
:2025B0002DE9F84FB34D696884B0019121B905B0BDE8F04F0CF080BD0978DFF8BC82AF4ED8
:2025D000DFF8BC92DFF8BCA201291CBF0229042946F2A81741F64C5B05D0402918BF8029A1
:2025F00000F096803CE10CF0A5F90028FAD00198007804F0EDF80090446814B900200BF00E
:202610003DFD9AF8010000285CD001F005FD0BF0BDFF02900168009801914F6808F0DCFA35
:20263000022825D000990A78012ADBD196490A68137A19F80310317018B90CF039FD584437
:20265000A0602069C17E01F0EF01C1762069C17E41F08001C1762069C17E01F0F00141F0FE
:202670000201C1762269B96888484118D1614BE001980178802911D10820854930700A7829
:20269000012A03D09AF80100022801DB38690CE0D8F828003A690178D1720DE07C490720D6
:2026B00030700A783869012A02D10121C17203E0D8F828104A78C2720298817901988AF864
:2026D0000210C8E0009800288CD00199009A0078914205D101281CBF00200BF0CFFC15E0E0
:2026F000012840F0BD80684801680A7A19F8020030700CF0DDFC3918A0680CF0D5FC18B918
:202710000CF0D6FC5844A0600120A8700098A2E09AF8010000287AD001F07EFC0BF036FF4C
:2027300004462068029047689AF802000BF02EFF03900CF005F910F0070F3DD0A87804F0F6
:2027500047F80190416801980091029908F044FA022831D001990A78012A2AD14A490A6883
:20277000137A19F80310317028B90CF0A1FC83440098C0F808B000980069C17E01F0EF018D
:20279000C17600980069C17E41F08001C17600980069C17E01F0F00141F00201C176009AA2
:2027B000B9683A4841181069C16101210198A97051E000200BF062FC0398A04225D00298E8
:2027D00033490278802A12D1082030700978012903D09AF80100022803DB38690121C1728F
:2027F00010E0D8F828003A690178D1720AE0072030700978386901290EBF0122D8F828108D
:202810004A78C272A0798AF80200029823E00CF097F810F0070F29D0A87803F0D9FF0446A9
:202830002078D4F80480012820D117490868027A19F8021031700CF03BFC3918D8F808001A
:202850000CF032FC20B90CF033FC5844C8F808000120A870204605B0BDE8F04F05F0ACBD40
:2028700005B0BDE8F04F00200BF008BC05B0BDE8F08F00BFFC240020F80301006F4F00201E
:20289000289A0110684E0020104F0020F0D8FFFF734F00202DE9FE4F0F469E4C0168E1620A
:2028B00041688068E0609C48A16080479B48E16A0160A168DFF884B24160E168DFF878822B
:2028D00081609749002FA246C1606ED03D68E8788DF8080028798DF8090002A80CF0E0FB6F
:2028F000A86808B18F490160E86808B18E4901608E4C287820706878BE686070A878B2686B
:20291000A0703178A2607368E1702E696360EA6926627968E2620868E06068696062A86912
:202930007B68A062286A9E68206395F8240084F834001EB900200BF0A1FB00E06661786811
:20295000C06818B900200BF099FB00E0A0617868006918B900200BF091FB00E0E06178681C
:20297000406818B900200BF089FB00E0206128692062F86881680E6806B96E4E6C494FF08D
:2029900001094E60C66881F801902EB900200BF075FBF868454601E045462E6000685C46D6
:2029B000FE68A0617068E06106E000200BF066FB4FF001095C46454628686149466804F1D2
:2029D00008035A465020B04710B1286880688047DAF8080080475C4F0026834669467E70FD
:2029F00058483E700422606130460AF071FB0098B0F5801F0CD020B90AF04AFE04F0A0F857
:202A100008E009F045FB0BF0E9FD0420788001E00AF03EFE4D4FB0462868C7F8088080691F
:202A3000E660804778604A48468080F8009014200BF0AAFEFF211422A0620CF085F8E01C9D
:202A5000FF2102220CF080F814200BF09DFE414908600868142231460CF076F83046FEF700
:202A70005FFC484609F034FE3B480188FF2906D1022101807822001D31460CF065F80320D9
:202A90000CF00AFB04200CF003FB05200CF0FCFA06200CF0F5FA072008F012FD2F4E08200C
:202AB000307006F124000CF0E7FA08F0C7FE06F1360705200A213A460BF019FA38B1404630
:202AD000C0F10901401C07F8011B0A28F8DB3078102105F0B3FB2F68214909200DF10A02FF
:202AF00001AB7D68087010204146A847A06ADAF80C10E2690A270A309DF80A307F1E00F805
:202B1000013BF9D1921E5846E261884702F00CFABDE8FE8F3815002041490010F8440020B2
:202B300060F10000C5D500005DE2000010190020841B0020C7A90000201C0020401A00200D
:202B5000A9DA0000D5E20000141C0020F0240020181C00202C250020E41600209C110020FB
:202B70003E2500202DE9F84FDFF8ACA20F460446F80B80F00681A34EDFF87C82B80F80F0AA
:202B9000B780B80880F0AB803809C0F02C8108200BF0B8FE002840F09D8080200BF0B2FE5C
:202BB000002840F09780684606F0FEF9012803D10098002800F08E8000250124E8B20BF061
:202BD000DBFC48B1837A3BB1847290F9090004FA00F0C0B209F0BEFE6D1C032DEED345468A
:202BF0004FF0030905F1AC0085F810900BF080FF8248002301680360814950F8082C984664
:202C10001A4640F8088C05F134000BF07DFF3068006B8047A968401A010BA869C1F1FF32A2
:202C300082422CBF08444FF0FF30A861287F20B1E868A969B1EBC02F1ED90BF01DF841461F
:202C500000B12146081C14D06F4840F60901018041464180427B64F303024273027B61F3E5
:202C70000302027341600BF057FD418811F4406FFBD02C774146A9616448016821F0020135
:202C900041F400710160624941F8049C41F230028A600C6050268E600C604FF4CA628A60B5
:202CB0000C6041F80C4C4446046002200AF042F8112005F023FB287818B9686838300BF0DB
:202CD0002FFF687F18B16C7705200AF033F8514868612C7408F050FA27F0080783E004F018
:202CF000A1FB45467435286808B927F002077AE00BF004FFB3468146DBF8540001680420B7
:202D10008847D8B1207CC8B1454608352868A8B10646DBF80000E568006B8047801BE0600C
:202D3000000BE060A84202D240194008E06040F6C41181422CBFB0F5FA7FE1604846FDF7FF
:202D50006FFE09F0EBFD90B1A56920466FF4807100224FF00073A847464606F16C052868C5
:202D7000002808BF47F0020701D008F005FA2046646900214FF080630A46A04727F0005731
:202D900031E00BF0BBFE51460E6846B306F1280106C90A234FF0E0450B40154008BF002B46
:202DB0001DD106F1280191E8300006F1280393E8060006F12803AA43A14383E80600FDF751
:202DD0002FFEB06868B1002D08BF002C09D030692246B6F93C10B4682B46A04701E0FDF747
:202DF0001FFE27F4804727B15046394650300BF09FFEBDE8F88FC046481C002014100440A1
:202E100075B400008C010010B8240020000004600C4104408D810000C81C00202DE9FC4186
:202E3000A0F2013714468846022F40F232819B4E9C493F1F0F2F04D9143F4CD0BF1E1CD0FB
:202E500011E0DFE817F0CF00C9000D01FA00C100B9002601AF00A700100010009D008F00C0
:202E70007F00740066002A2880F21381B8F1020F40F00F818849238807E1B8F1010F40F0CA
:202E90000881F078012800F00481324620781179107189B9002800F0FC805078012800F0C1
:202EB000B580042800F0B280062800F0AF80052800F0AC80BDE8FC812078002840F0E9806E
:202ED0005078032800F0AF80072800F0AC80052840F0DF80A7E0B8F1010F40F0DA80207867
:202EF000012840F0D68006F1EC000BF025FC002840F0CF803446002004F13A0106F076FE39
:202F1000002840F0C68004F1C8000BF015FEBDE8FC81B8F1020F40F0BC8020880A28C0F264
:202F3000B880B0F5486F00F3B4808E1C17E0B8F1020F40F0AE802088B0F5FA7F80F2A980AC
:202F50000E460CE0B8F1020F40F0A38020880628C0F29F80B0F5486F00F39B803E363080DF
:202F7000BDE8FC81B8F1020F40F0938020880628C0F28F80B0F5486F00F38B803C36EEE7EA
:202F9000B8F1010F40F085802078062880F28180454E0EE0B8F1010F7BD12078042878DA5E
:202FB0000A3606E0B8F1010F73D12078082870DA09363070BDE8FC81B8F1010F69D1207840
:202FD000042866DA0836F4E7B8F1010F61D1207804285EDCF61DECE7B8F1020F59D1208801
:202FF0000E36BCE7B8F1010F53D13079012850D032462078D178D07069B9002849D0507847
:20301000012803D0042818BF052842D101200BF0B3FBBDE8FC81207800283AD150780228B8
:2030300018BF052835D110780AF014FA1C490246102002F03DFDBDE8FC8106F1830500211B
:203050001F22284607F05CF921464246284606F0E3F844463078B4710AF0FCF9002311E0DD
:2030700006F1640500211F22284607F049F921464246284606F0D0F84446307874710AF0AB
:20309000E9F901230094094901950246102002F00FFDBDE8FC81C0467DCE0000880C002001
:2030B00099450110C80C0020C20C0020094501102DE9F04F8246DAF80070DAF804600C46E9
:2030D0005FEA0208ADF11C0D14BF00214FF0FF31DFF8449248460BF0BCFA002818BF0B204D
:2030F00040F01681002590488D4905708B48FC6052460BF009FD317B27200BF007FDB8F14E
:20311000010F07D0657002200AF042F806200AF03FF801E0012060702078012840F2AB8046
:20313000801E012868D9801E012833D9801E012800F2DF800BF0E2FC83464FF0805000F5E6
:20315000EE77D0F8DC01A378466A009321782846062908BF0120019001200290A068228AE1
:20317000E1686368B04781465846FDF759FCB9F1000F40F0C080B8F1000F02D00BF08AF856
:2031900002E0504609F08CFE002800F0A4803868806A2AE00BF0B2FC83464FF0805000F5DE
:2031B000EE77D0F8DC01012306680093A168A27860682478AC46042C08BF9C466346B047DE
:2031D00081465846FDF72CFCB9F1000F40F09380B8F1000F02D00BF05DF802E0504609F017
:2031F0005FFE002877D03868406880474D49C1F8B0510D6081467EE00BF080FC83464FF083
:20321000805000F5EE76D0F8DC01E38A87690093E0680190208B0290A0780390207D0490EE
:203230000121059122782846022A08BF081CE1786268A368B84781465846FDF7F1FBB9F18B
:20325000000F58D1B8F1000F02D00BF023F802E0504609F025FE00283DD03068006A8047F4
:203270005FEA000947D13068C569A168E28A2369E078A847BEE70BF041FC83464FF0805011
:2032900000F5EE76D0F8DC01E38AC7680093E0680190208B0290A0780390207D2946049090
:2032B00001200590257805B9014608466268A368E178B84781465846FDF7B2FBB9F1000F6C
:2032D00019D1B8F1000F02D00AF0E4FF02E0504609F0E6FD08B914201AE030684069804742
:2032F0005FEA000907D1306802692169E078904780E74FF0FF39B8F1010F05D0022009F051
:2033100019FD062009F016FD03480BF009FC484607B0BDE8F08FC046D41700200C1800204C
:20333000A5D70000504502403C25002010B50B7884074CBF43F0020303F0FD0304064CBF8B
:2033500043F0800303F07F0304074CBF43F0080303F0F70384064CBF43F0200303F0DF0331
:2033700010F0AA0F0B7003D0107840F00C0003E018B9107800F0F300107010BD2DE9F843B5
:203390000D4600272878022814461E4667D1696808784978DDF8208000EB012080B25FEAD5
:2033B00008021CBFB0F5285F0B205BD14FF42851401A08D0401E21D0401E2FD0401E25D0A8
:2033D000401E31D04BE0DDF82490E8680BF0BEFB80B2A0EB08024A45BCBFA0EB08001FFA49
:2033F00080F909EB0800162806DAA6F800904A46E86800EB08010DE00D2732E0E86800881D
:20341000022131802070000A60702AE0062030800622E96820460AF079FF22E0012030805A
:20343000E9680A7822701CE0E868B0B1082131800288227003881B0A63704188A17042884D
:20345000120AE270818821718288120A6271C188A171C088000AE07103E0308001E0378031
:2034700001273846BDE8F2832DE9F0470F46814638780024022890461D466DD17868089E18
:2034900001784078DFF8D8A001EB002189B24FF42852891A06D0491E29D0491E4ED0491ED2
:2034B00039D059E0F8680BF051FB80B2B04204D3A919162903DB0D244FE007244DE0FB681E
:2034D0002A46414698190AF021FFAD19F868ADB2C5F11602002140190BF036FBDAF800004F
:2034F00000281CBF0268002A37D0002123E08EBB022DE0D198F8000098F80110FA6800EB53
:2035100001201080DAF8000000281CBF0268002A23D001210FE0EEB9062DCCD1F86806227E
:2035300041460AF0F3FEDAF8000000281CBF0268002A12D00321484690470EE056B9012D0A
:20355000B9D198F80000002813BF0128F9680870802402E00B2400E001242046BDE8F08709
:2035700024250020FEB57748774A0078774C784B78490D2840D8DFE800F0E307070707DB02
:20359000DB5EDB9A9AB8B8BF146041F2044572494C88AC421FBF4E8BAE424F8EAF4203D1EE
:2035B0001D806E4810607AE0002C6D4D1C804FF4A05639D0641E3CD0641E35D040F2FE379E
:2035D000E41B1AD0241F012C1DD94FF47F77E41B1BD04FF44067E41B0FD0A41E012C0CD9CD
:2035F000241F0AD0641E012C0DD940F2F937E41B012C19D9241F08D09AE0022814BF1E8059
:20361000584D15604BE0584DFBE7584803681C7A012C05D141F20240488048834886F0E77D
:203630004E804E834E86ECE700200AF027FD832082E08F2080E04E488178FF2954D0146093
:2036500018204C4C41432068851C40F204466C5A1C80A41B012C484B72D94FF47F76A41B3E
:203670000FD04FF44066A41B032C84BF641F012C0BD9A41E012C63D940F2FD36A41B08D185
:2036900003E0801C41F201444452136004F082F905E000200AF0F2FC85200BF0E9FC03B086
:2036B000BDE8F04035480078012104F0C7BD40F204424888188090421CBF41F208429042BA
:2036D0003ED041F60402904211D12D4C2D482E4B00680025CDE9004502222C4C256855F876
:2036F000086FB0472A490880F7BD4888188000200AF0C4FC85201FE04888188002280DD93F
:2037100040F20442801A1BD040F6FC72801A05D0083815D04FF47F72801AE8D1887B801C3E
:20373000C2B2B52AA8BF6620887300204880F7BD00200AF0A3FC8420BDE8FE400BF098BC13
:20375000F7BD00BF6F4F0020204F0020ADEA0000504F0020CC4C0020204A002059550110A2
:20377000615A0110B1540110755B0110104F0020684E0020804E0020313901106E4F0020DB
:2037900002000080EC4E002015CE0000F04E0020424F00207CB5894D144602460026A2F5E5
:2037B0008062182A1AD8DFE812F0FE00F800F100E900E200DC00D500D0001900C500BE004B
:2037D000B700AE00A3001900190080006F00680054004C00420039002C0024002A2880F219
:2037F0008580022940F08280218809F03FFB0646E1E0012940F0DE80002C00F0DB801135F9
:20381000A6E0102940F0D680002C00F0D38028465030102221460AF079FDCCE0012940F0E7
:20383000C980002C00F0C68029468D1D90E0262940F0C080002C00F0BD8005F1600026228E
:20385000E8E7012940F0B680002C00F0B3806D1D7EE0602900D13CB9012940F0AB80002CC2
:2038700000F0A8800D3573E005F18600214660220AF04CFD012068739DE0012940F09A80F6
:2038900020780BF0F1FB96E0012940F093802078022800F38F800C3528702078022814BF84
:2038B000301C01200BF0DCFB85E0072940F08280611C684606220AF00BFC207869463246DF
:2038D00005F0E8F804460A2C10DA0BF0C5FB38B9204603F0A3F80AF025F807F0AFFF6AE0F3
:2038F0002A46012002F12C05285564E0022662E001295FD1A87B21780028A9735BD12078BA
:20391000012858D1E9E7012954D12478072C51DB102C4FDC0B3537E001294BD124780A2C55
:2039300048DA093530E0012944D12478022C41DA083529E000293DD10BF08EFB10B90AF01F
:203950009DFDC8E701240F351EE0012932D10A35247819E001292DD12478022C2ADAED1DA6
:2039700012E0102926D12B4603F1400051E7012920D12478022C1DDA2D1D05E0012919D119
:203990002478042C16DCED1C2C7014E0012911D12478022C0EDAAD1CF6E702290AD12088AE
:2039B0001435288007E0012904D12478022CD8BF6D1CE9DD182630467CBDC0469C110020B0
:2039D0002DE9FE4F05467B48002400680094C00905D37948007810B9202009F07BFA012DC7
:2039F00040F0E280DFF80092D9F8DC00012840F0D8800220C9F8DC000AF0ECFB012009F0A4
:203A100069FA5FEA000805D00120C9F8DC000AF0EDFBCBE00BF088F8A34602906748684D68
:203A3000C0F800B0A86A016801208847012804D1584607F007F9012000906248624FC0F84C
:203A500000B0386811200AF057FF00B1012410200AF052FF08B144F002040F200AF04CFFCD
:203A700008B144F004040B200AF046FF20B12868564E016B308888470A200AF03DFF20B1AE
:203A90002868534E016B308888475248012606602868816944F0200088474F4806600AF037
:203AB00025FF00F001010191400814D2286A81684A4888478246BAF1040FF7D0BAF1010F3C
:203AD00004D1286A42684548032190474449086820F003000860584600F088F82B68386884
:203AF000986B8047019801280CD0BAF1010F04D1286A42683948314690473949086840F091
:203B1000030008602F48066028684169204688470B200AF0F1FE20B128682C4BC16A188827
:203B300088470A200AF0E8FE20B12868284BC16A18888847274806600322C9F8DC20264B06
:203B5000C3F800B02868416B204688470128F9D13868042009F0BEF9044618480660386862
:203B7000144800688009FBD30098012802D1304607F068F80AF0ADFE082009F0ABF9074602
:203B90000298C9F8DC600BF063FA1648008806F0C3FD0AF02BFB57EA040018BF4FF0FF38D8
:203BB00004E06FF0040801E06FF001084046BDE8FE8FC046141009400C1500200C4009405C
:203BD000B8010010000222432C200940AEFE0000AAFE0000282008608001044300400340C1
:203BF000242208408C020100241400202DE9F84FDFF804B20746ABF13500DFF8F081006888
:203C1000800880F0E28075480068006880477E490831D1F8009000254FEA29715FEA995261
:203C300001F101010AD2C0F13E0210F10A0F4FEAE202D8BF08229142B8BF111C684BD3F8C6
:203C50007C21C2F30462162AA8BF203A1B68C3F30443162BA8BF203B9A465218162A05DAAF
:203C700012F10A0FB8BF6FF0090200E015225D4B5D4E02F01F0141F4F8511980316811F00A
:203C9000030F18BF0125C90828BF45F002050FB145F00405434693F90710411A052904DA80
:203CB0009979A94208BF99886FD0DFF844E10F28A0F10F0829DB08EB0011A1F1F0084FEA2A
:203CD00028210091072984BF07210091062988BF06215EF821600424774604EB81043C596C
:203CF0004FEA950CA41BEE0804F0FF0124BFC4F3072631446F08AE0824BFC4F3074631446C
:203D10006E0828BF01EB146104E000214FEA950C6F080091009C5EF824E05FEA5C060EF04F
:203D3000FF0424BFCEF3072634447E0824BFCEF3074634446E0828BF04EB1E64009E89B291
:203D5000A8EB06267143803104EB1124AAEB02010029D8BF0121342209F0FF074A4391B26C
:203D70004FF6FF727943B1FBF4F18A4238BF111C802889B2998005DA10F1800FB8BF6FF0FF
:203D90007F0000E07F20D8719D711A4800681F2918604FF0000008D340F2FF128A4206D233
:203DB0004908401C8A42FBD301E01F219980134F0F39090940EAC10047EA0001CBF8FB1FBC
:203DD0000026CBF8FF6FBDE8F88F0D490D4F434608200F609B1D1870BDE8F88FEC01001015
:203DF0003C1100506E62084024220840182500209C130050082009403500094000E7A4801A
:203E100030100940FDFDA400AC3F00502DE9F04F044672488E46016894461F46BEF1000F9D
:203E3000ADF13C0D4DD0BCF1000F4AD09EF8002001209040014244D0BCF80000B0F5C15F21
:203E500032D1DCF81400DCF81860654BDCF81C50DFF890A10B904FF003080DF128090C966D
:203E700018680D95C0F3036B59F8046FCEB10021351F05200B4655F8042FB2F1FF3F10D080
:203E9000924506D0401E01F1040103F10103F2D107E0052B05DA705820F4702040EA0B407E
:203EB0007050B8F10108DFD1C4F804E0C4F808C00AF024FE4C4D8046287820B14046FCF747
:203ED000AFFD002087E002F059FB4849086840F00200086007A80AF027FC002605F1D00006
:203EF00007AA4349099608F099FB424905F5827007AA08F093FB07A80AF0DEFBFF201921C1
:203F100007AB3D4A089005F1340008F00DFB3B4A05F150001A2107AB08F006FB38493246EC
:203F300005F18800134607F035FD3649324605F1AC00134607F02EFD334A05F120000421A5
:203F5000334609F04FFC0E2004F0F0FA05F174000AF0D6FA05F16C000AF0D2FA2E74052362
:203F7000EB60072085F898012E77AE616E772849AE60264A69612B781670581C287040469C
:203F9000FCF74EFDB1461FB968460AF0D7FA6F4638682060388A6082012060747B6813B96E
:203FB00040F6C4130646E3601A48A06126746061F86800B1A061B86800B1606149465822EA
:203FD00004F1200006F09CF904F13800494609F0C5FA6C6020460FB0BDE8F08FD42108406B
:203FF000541300500200F844481C0020002009402DE20000297C000075B4000069AE0000DB
:2040100069DC0000E5DF000021BC0000362500208D810000FF8900002DE9FE4FDFF8F481EA
:2040300098F8011011B900200AF028F80BF040F807464FF0000907F6C4170026764D774C7F
:2040500011E030460AF0A2FA417951B12A68817902F8091009F101015FFA81F939460AF0B0
:20407000F3FF761CF6B220788642EADB98F80110894505D000200AF001F882200AF0F8FFF5
:2040900098F80100012840F0A780002601E0761CF6B22078864280F2998030460AF076FAF3
:2040B000074678790028F2D02968B8790A7890421CBF002009F0E2FFB87985E02868C05D9A
:2040D0000AF064FA00684268DAF808109068814204BF34467F1C00F08D808FE0296808786C
:2040F00001234FF4C07210E0D8F8047007F5AD7CCF5C02FB07FE02FB00FA3CF80E403CF8E4
:204110000AC0644538BF38465B1CF7B2BB42EBDB06464FF6FF700AF093FF8246F0B20AF0D4
:2041300035FA4FEA5A010068446840F6C410414300270190009117E0F0B20AF027FA0168A4
:204150000A78802A03D1DBF81030009A5A610978402908D1324A8079116801EB4012009860
:2041700000F5A060D0617F1C4F4551DA2868C05DF1B28142F7D001464FF4C073D8F8042024
:20419000594302EB010C02F5AD72BCF80E30515A5A088A4202D25B1A9945E4DA0AF0F6F9CA
:2041B0000068D0F804B0A268DBF80810019B4FEA5A00A1F6C41103FB00200AF075FF0028C7
:2041D000BAD02868C05DC0B2BDE8FE8F002009F055FF82200AF04CFF98F8011028680AF075
:2041F0002BFF286800780AF0D1F900240068D0F804A00127661C4F45FFF660AFE4B2002CBD
:204210001CBFF0B200287FF469AF2868067880E73046D8E7684E0020004F00207B4F002085
:20423000844E00202DE9FE4F0E468246307AC10693461F464FF000090CD558460AF0F8FE97
:20425000030000F0E8800A223146504698475FEA00094DD130780C9D0D9CDDF838800228BA
:204270001AD170680178407801EB002189B24FF42052891A012910D9891E3AD0491E14D08B
:20429000FD397AD0491E00F08180491E6DD0491E73D0491E00F09580ABE0002C2AD1F06872
:2042B000017829800278416887E0002C22D101202880F1680A783A7000217089401C80B22D
:2042D0000AF0B2FE298860B10278921C51182980418979704289120ABA7041680278F81C2D
:2042F0006CE0091D298004220021781C0AF02CFC93E0002C66D1F0680688042129803E705E
:20431000320A7A700DF1020130460AF08DFE040021D0D4F80C80BDF802204FF6FF766B46DC
:2043300031460AF07DFE40B9237862683C4802210AF072FE08B9ADF8006098F80000022892
:204350000BD1D8F804100222381D09F0DFFF2888801C288001E0ADF80060BDF80000B87086
:20437000BDF80010090AF97057E0002C2AD1F068016850460AF090F902E01CBBF06800881B
:20439000022129803870000A787046E0F0680AF0DDFB80B2A042B8BF4FF007093DDB84429F
:2043B00008BF002205D008EB04028242B4BF4246021B2A8092B2F0680119384609F0A6FFDE
:2043D0002BE014B14FF00B0927E0F0680721298002783A7043787B704188B9704288120AD8
:2043F000FA7001793971C2887A71C088000AB87113E058460AF00CFE5FEA00090BD00F9806
:204410000290CDF8048000942B463A4631465046C847814601E04FF00E094846BDE8FE8F52
:2044300054000100FEB50E46002407464CA503224DA3DA2100942846019404F003FE4EA321
:20445000B81E08D0801E7BD0401E62D0401E49D0401E2FD015E0012E09D000942846ED2144
:204470000322019404F0EEFDEE2146A371E000942846E8210322019404F0E4FDE92146A3BD
:2044900067E00094284640F205110322019404F0D9FD009428464FF48371032244A301941D
:2044B00004F0D0FD01208DF80B009DF80B000028FBD1FEBD00942846FF210322019404F05B
:2044D000C1FD009428464FF4807103223EA3019404F0B8FD01208DF80A009DF80A0000281D
:2044F000FBD1FEBD00942846F9210322019404F0A9FD00942846FA21032238A3019404F00F
:20451000A1FD01208DF809009DF809000028FBD1FEBD00942846F3210322019404F092FD9E
:2045300000942846F421032231A3019404F08AFD01208DF808009DF808000028FBD1FEBD51
:2045500000942846E0210322019404F07BFDE1212BA3009428460322019404F073FDFEBD77
:204570006D61696E2E6300C03E3E3E535441434B20415353455254002A2A2A4552524F520B
:204590002A2A2A003E3E20494E5445524E414C204552524F522100C03E3E20494E544552EB
:2045B0004E414C204657204552524F522100C0463E3E2044454641554C54205350494E4C3B
:2045D0004F434B2100C046C03E3E2057524F4E47204150492043414C4C2100C03E3E2049E2
:2045F00043414C4C2054494D454F55542100C0463E3E204943414C4C2041424F5254210067
:204610003E3E204F5554204F46204D454D4F5259210070472DE9F0410446764DA178A869F2
:20463000ADF1180D891F00F0DE80C91E00F0C980491E5FD0491E48D0C91E3CD0481E40F0F3
:20465000D580287A697AB8B96878002831D0A0880AF0DAFC071C00F0C980A07A40080FD35E
:20467000787968B1E168890A0AD2B91D01AA04F011FA0A2804D10321A0880AF0C1FCB5E049
:20469000287B022802D1A07A0009F4D3A088797904F1080201F044F9A869002800F0A680EA
:2046B0004368002B00F0A28000210A46A08898479CE00521E0E7002800F098804368002B1B
:2046D00000F0948062780221F0E70AF04DF8002800F08C80A86950B1076847B120690090FD
:2046F0006189227B637BE01C3C46A0477EE060890121C2E767784FF00008002F52D1A1793C
:2047100049084FD3EF69002F4CD101A841460E220AF01AFAA0880AF077FC071C66D060694D
:2047300040B97879B91D06228DF80A0001A809F0EDFD19E06669307C062206F111018DF83C
:204750000A0001A809F0E2FD07F10C00B91D062209F0DCFDB81D062206F1110109F0D6FD18
:20477000307C40F002007871A1799DF81120C1F3800010438DF81100080905D39DF81100D6
:2047900040F008008DF8110001A8214600F024F928B92878022103F051FD404627E0A8699B
:2047B0004FF0150810B3436803B3A088627801219847B8F1000F19D0A8694368032142465D
:2047D00074E7E078211D002204F064F90A280DDA410001EB800004F10C0225300421C0B2B0
:2047F00002F0C0FB02E0A08807F024F9012006B0BDE8F0819C1100202DE9F04F754F1E46A7
:20481000ADF1340D01914FEA960902923D680090710809F1020221F0010105EB8200091D54
:204830000390901805EB80000490501805EB80038018059305EB8000079026F0030000F10D
:20485000080802EB080005EB800340180893801805EB80000990C6F39C008000083002EB42
:204870004000411805EB800305EB810B0A938918831805EB8104404405EB8303C6F3990105
:2048900005EB80008900069038680B930A010021803205F035FD4849DFF820A1096828462E
:2048B000AAF1880290470746B94518BF6FF001007ED128465546394605F1680290470198C3
:2048D000314609F0C9FA002818BF012070D10298314609F0C1FA002818BF022068D103987A
:2048F0000199A84704980299A847009881680598A847334B0399059A20469946C8470128B6
:2049100002D1BD0066590EB1032051E020460021424605F0F5FC0499059A2046C847012856
:2049300001D166590EB1042042E0274B254D079803991E462A46B047089804992A46B04743
:20495000079909980A46B0470A980999079AB0471E4D0B9807992A46B047204600212822FD
:2049700005F0CEFC1A4B0A990B9A20469946C847203520462A460146C847089958460A4657
:20499000B04706980021424605F0BAFCFDB25846002D0CBF0122FAB20021635C455CAB429C
:2049B00018BF052004D1491C521EC9B2F5D100200DB0BDE8F08FC0468C4F0020B9DB00105A
:2049D000C9DE0010741A0020F9E00010A0FF0000C9E60010884F00202DE9FF478146714C44
:2049F000DFF8BCA1E069884600284CD1B9F1000F00F09480B8F1000F00F09080484608F01C
:204A10005DFE05460A2D23DAD8F814702574002F37D0680010216A4600EB85002330C0B20B
:204A300009F065FA90B950460778FF211022684609F085FB50B93FB999F80600494600F020
:204A500001000AF0D9FA01E00120A074E0691AE004F1E6070A2600253846FF21062209F029
:204A70006EFB68B9761E07F10E0705F10105F3D1607C002804BF0A2020744FD094F8365085
:204A90002574E06900E0257C0A2D47DA002835D168000E214A4600EB85002030C0B202F0D2
:204AB00061FA207C07F000F96846FF2110220AF04BF8207C10216A467030C0B202F052FAF5
:204AD000217C0E220801A0EB410000194946E63009F01CFCD8F814206AB15046007840B92F
:204AF000107C02F11101002300F001000AF080FA01E00120A074C4F81C804CE08268002ADF
:204B10003ED10269002A2FD142690ABBC2683AB9A07B08B108F09CFB09F0DAF901203BE0E9
:204B30006800102100EB85002430C0B202F01AFAE769217CFA68480000EB810010322530F6
:204B50000421C0B202F00EFAE1690020C86022E06800102100EB85002330C0B202F002FA64
:204B7000E1690020486116E068001C2100EB85002230C0B202F0F6F9E169002008610AE0A5
:204B900068001C2100EB85002130C0B202F0EAF9E1690020886000200090BDE8FF87C04625
:204BB0005A4F00209C11002066480178002900D170472DE9F843491E032984B004D9891FDA
:204BD000012940F2BC80B4E05F4CDFF880912068DFF87C8103685F4E03F10805062205F173
:204BF000080102A809F092FB0622A91C684609F08DFB2878C1091D2700F00F02032AC0F3C1
:204C1000801537D16079C0F3800081421ED12169062202A809F090F800280AD0694628462D
:204C30000AF062FA002804D0314668460AF058FAFF2879D04743D8F80000807AF5190028A7
:204C500018BF02280AD0012818BF03286CD1F25D691C48460AF0C8F9102865D06B46EA1DBF
:204C7000294648460AF0BCF906226946E81D09F04DFB59E000F00F00052860D16079C0F339
:204C90008000814250D12169062202A809F054F8002849D0694628460AF026FA002843D04C
:204CB000314668460AF01CFAFF283DD04743D8F80000807AF519002818BF01280AD00228ED
:204CD00018BF032830D1F25D691C48460AF08CF9102829D040F2024007F0BEFC6B46EA1DD2
:204CF000294648460AF07CF906226946E81D09F00DFBD8F80010F05D88760622D8F8000038
:204D1000691C143009F002FB1348144A41F204414180418341861248018012491248116046
:204D30000121007803F08AFA21680A680020107105E0002009F0A2F986200AF099F905B036
:204D5000BDE8F0836F4F0020F44B0020CC470020104F0020AC450020204A0020204F002012
:204D7000504F0020595501106E4F00202DE9F0430546880FADF1140DC0F0C080614C201D04
:204D9000006840688768C668406800B18047002F08BF002E08D009F0DBFB07B1B84706B17D
:204DB000B047594808F00AFD584809F0B5FC584940F60A0CA1F800C0002048800A7B60F3FC
:204DD00003020A7348604A7B4FF0010969F303024A73AB686E7C58801A88A2F60202CAB1DF
:204DF00041F21E07D21B15D041F6E677D21B012A20D85A7E012E60F382025A7606D01A8BAC
:204E100022F47C7242F434721A8313E01A8B60F30912F9E75A7C012E60F382025A7405D0A0
:204E30001A8A22F47C7242F4347202E01A8A60F309121A82D5F8088068746246464600E009
:204E50003E46776817B13B889A42F9D17160727B60F303027273E76E47B1FA681288ACF1CD
:204E7000070393421AD05B1C934217D02F8CB7B1686205F12002508095F82C3060F303030F
:204E900085F82C3095F82D3069F3030385F82D304A604A7B60F303024A7300E0A0601D483A
:204EB00001688768C568009110226946406B019720F0784040F0805003901748029504F063
:204ED000ABF909F045FB15486061607F68B91448006801684846884701280CD0707B69F3F1
:204EF000030070730F4F676105E007F01DFA0028FBD009F011FE404609F00EFC05B0BDE8C5
:204F1000F083C046481C00200100070601010E04B82400204C13005018000021752B0000DE
:204F3000E001001095B600002DE9FE4F664D654C664F2868626A066904F120033946012026
:204F5000B04710B1286880688047DFF89481DFF8809108F0D3FC5FEA000B03D004F04EFC4A
:204F70004FF0FF3B002637E00098616910F8062CA0F10C07032A02D171B388472CE0A06A22
:204F90009DF805C00A213246401E10F8013F9C4506D0491E02F10102F7D14FF0FF0A01E059
:204FB0005FFA82FA2868BAF1FF0F00F1080011D0387907F093FDB979012904D0022904BF93
:204FD0000099887001E0009908700099504608F0D3FE01E0006880472868C3690DF1050176
:204FF0006A4601A898470028BED0D9F800007700C35B23B9761CF6B20A2EF8DB22E00A2EF2
:2050100020DAD8F808008047D9F80010002231F807A0CA53D8F80C1088472E4850F8262038
:2050300066705146304690470646FF206070D8F808008047D9F800107A5A16437E52D8F81E
:205050000C10884708F05AFC0746BB451AD0D8F8080007B9204FE169B94238BF0F1C80479B
:2050700082462868016A206A8847626A286817491A4B521C6262C6683846B047D8F80C1022
:2050900050468847E7682968A06814318FB9D9F800000A270026835B33B10969A0688847F3
:2050B0002968D9F8000014317F1E06F10206F2D103E0096988472968143109684FF0FF3001
:2050D000884746E7401A0020201C002025CB00002C250020200101008EC2F528601A002064
:2050F000381500202DE9F04F6C4CA068ADF13C0D002800F0858004F1B80B4FF00D0A4FF0CD
:205110000A094FF0010878E0FBF786FC2178CA0002EB41125A44B2E8E01004ABA3E8E01063
:20513000E0CAE0C364CA4F1C07F01F0183E8640004F10C05627821708A4208BF84F8028091
:20515000FBF76EFCBDF83630A6212FA2284609F003F8284609F04CFA049F4619B8B208F0BD
:205170001BFE4AA20CCA01F001FE4AA20CCA01F0FDFD06F077FE009025A2A91B3B0C304664
:20519000A63108F0E9FF284609F032FABDF834704019BF1E04D07F1E14BF21A229A200E074
:2051B00031A206990091059B2F1A07F1A60108F0D3FF284609F01CFA4219A0682946521BCE
:2051D00009F02CFC099800900A9E01960B9F02970C9B0393089B079AA621284608F0BCFF82
:2051F000284609F005FA421902F801AB02F8019BA0682946521B09F011FCA078002883D025
:205210000FB0BDE8F08FC04623253036752000C05B2025642E25303375205D2000C046C000
:205230001B5B33323B316D494E464F3A201B5B33303B316D2825733A256429201B5B306D93
:2052500000C046C01B5B33313B316D4552524F523A201B5B33303B316D2825733A25642983
:20527000201B5B306D00C0461B5B33333B316D5741524E494E473A201B5B33303B316D28E6
:2052900025733A256429201B5B306D00000000000000F03E0000000000408F4008020020E0
:2052B0002DE9F04FADF1240D079001F067F95F48007808F085FB5E4D0024012806D90C3820
:2052D00004D0401E0ED0401E09D006E008F06AFF022804BF01210C1C06D0696805E0052147
:2052F0001F2401E0032107246960524A1068C0F38150012806D152F80C0C0127020E07FA2F
:2053100002F0044309F0F8F905F1440AFF2253464018401E471C28607F1E03F8012BFBD12B
:20533000079A1268002602F0FF03FE2B1DD0DDF81CC0964633460EF0FF07FF2F0ED0B84202
:2053500005D3B94203D80122BA40144201D0022069E016430EF0FF020AF802305CF804EF0D
:205370005B1C0EF0FF07FE2FE7D1092003F0DEF807980121A86005F1280008F0EFF80027DE
:205390004FF0010BB9462846804600F198050BFA07F0044216D1064204BF07F0FF0141F491
:2053B000C04104D01AF80700079951F82010224801F04AFFF8B24FF0FF3108F02DFCC5F83B
:2053D000009001E004202860D8F800007F1C2D1D8742DCD904A809F06FF9184C184A207802
:2053F000102104AB059008F10C0007F09DF8684609F09AF9CDF80C906A4660681149029098
:2054100008F1640007F00AF90F4951F80D0C20F4F85040F4005041F80D0C0C4FC1F8FFBF67
:205430004846C7F800B009B0BDE8F08F3D25002010130020B43F0050007FC7677803010051
:20545000C9DF0000F9C200000D300940080009402DE9F04F0746ADF1140D0393002F029248
:205470000E9801910F9C049000F0B680081C00F0B380101C00F0B080181C00F0AD800498FF
:20549000002800F0A980002C00F0AB80206A002800F0A280564D666A281D0068002E00F072
:2054B0009B80A16A09F098FD40B2002808BF6FF0020700F08D8084F82C002078618800EBCE
:2054D00080000918143188B2216A88474749086030B92846406809F07BFD4FF0FF3777E00E
:2054F0008B46628823786088DBF8001025789E1800EB010A701800F1040805EB450002EB8B
:205510004306851876186D18C01805F10C098018401800F11005204606F038FC2078C01CA5
:205530008010CAF800002078C01C8010C8F8000020780836C01C801030602078C01C80106F
:20555000C9F800002078C01C80102860227839460AF1040003F060FE2278019908F1040054
:2055700003F05AFE22780299301D03F055FE2378204641463246FFF73FF9071C12D100953F
:205590005046414632464B4609F01EFD47B22278039809F1040103F03FFE22780498291DE8
:2055B00003F03AFE21786288DBF8000001EB81015218002104F0A4FE616ADBF8000088475E
:2055D0000B48406809F004FDF8B2992808BF002784F82C70384606E01CB16FF0010084F848
:2055F0002C006FF0010005B0BDE8F08F884F00206C1A002010B5401EADF1180D30D0401E55
:2056100028D0801E22D0401E1CD0401E0DD0401E07D0401E58D100204FF455712FA304466C
:205630004CE04FF452712FA317E040F2153002A901F062F902A806F04DFA002440F2433140
:205650002FA33BE04FF4547137A306E04FF453713BA302E040F239313EA3002420462DE0AA
:205670004FF4417004A901F047F99DF811308DF8093000248DF80C408DF80B409DF8122028
:205690008DF80A209DF815108DF80F109DF810008DF808009DF814309DF813208DF80E3057
:2056B0003A498DF80D2002AB586848601A680A6004A806F00FFA4FF44D7129A30090012279
:2056D00002A0019403F0BEFC06B010BD70726F6A6563745F7A65726F2E6300C04572726F54
:2056F0007200C046436F6E6E656374656420616E64206164766572746973696E6700C04676
:20571000436F6E6E65637465642E205065657220616464726573733A201B5B33326D2573CC
:205730001B5B306D00C046C0436F6E6E656374696F6E2074696D6564206F757400C046C0FF
:20575000446973636F6E6E6563746564202F2049646C65004164766572746973696E6700F9
:2057700047415020697320737461727465642E204F757220616464726573733A201B5B33A1
:20579000326D25731B5B306D00C046C0D70F00202DE9F843614C5A4D5A4EDFF870815E4F21
:2057B00094F8E4100846401E0B2864D8DFE800F07B2C43062343062343067664042907D0E1
:2057D00001220A2945F8212C14BF0220032004E0202045F8210C0120024684F8E20000204C
:2057F00045F8390C0827C5F8FF7FC5F8F37F45F8392CBDE8F883052914BF09200620002745
:2058100084F8E400376075E094F8E170383D0120002FC5F81B0004BF0620002102D00021B5
:20583000F160032084F8E400032045F8010C3160306880085ED294F8E410334801270329E7
:205850000ED00068456800216022052300914046A84794F8E400062814BF0A200720CFE7FC
:2058700000684568002160220523022000904046A8470420C4E7FEE72548264F002601252F
:2058900006600E203D6002F039FD022007F052FA84F8E45084F8E360BDE8F88300203860F3
:2058B0000C25786024E04FF08059D9F8A0010168202088472C3D0F2045F8010C41F61D563D
:2058D000C5F80360D9F8A401466800214FF4C0720723022540460095B047D9F8A401C668D7
:2058F00000214FF4C07207234046B0470120386084F8E45004F1780009F0F8F8BDE8F8837C
:2059100039400C4038600C40A401001000A00C402C500C4004800C4034600C40241400205D
:205930002DE9F04F88468246ADF1AC0D299209F06BFB5C4CE67894F80BB0A57A94F80C9067
:20595000071C00F0AB8068460021A42209F0FCF82801279A55498DF8046005F0030300F417
:20597000807605F00405ADF800A0B9F1020F01EA020143EA01024C4B8DF8A0B046EA020166
:2059900000F4C06603EA010246EA020045EA00054FF00000279508BF01208DF8370009F0EF
:2059B0000FFB412809DB207B00280CBF002008209DF8991008438DF89900607B002804BF3D
:2059D00000208DF8380017D001208DF8380004F1860120220DF1390008F098FC0DF159003D
:2059F00004F1A601202208F091FC0DF1790004F1C601202208F08AFCA07940B18DF826008C
:205A100004F1500110220DF1270008F07FFC66793EB104F16000B91D0622054608F08CF97D
:205A300068B92079002804BF00208DF8050015D08DF8050004F140010DF106000BE08DF8EE
:205A500005600DF1060005F11601102208F05EFC0DF11600A91D102208F058FCE07930B1AA
:205A7000B8F1000F03D0279941F002012791002100B10121A7789DF89900002F41EA000143
:205A90008DF899100CBF002004209DF89910084329998DF89900684609F08EFA2BB0BDE8A1
:205AB000F08FC0469C110020FBF9FFFFFCFEFFFF0FB42DE9F04106AF8046ADF1280D08F04A
:205AD00087FF3E1D26F00306361D30F0010001D101F047FACDF81A601420ADF816000025EB
:205AF000CDF80E50FF248DF818407B68CDF81E3009F05EFA064608F06BFF30F0010015D078
:205B100008F010FB4D492A468446062031F80C7F4FB14B681B689E4204D0401E02F101028A
:205B3000F4D100E0D4B2604608F050FC404607F0E7F80146FF2905D0204603220DF11A03FA
:205B500004F072FF09F034FA07F0B0FCA8460446CDF8008008F03CFF30F0010063D000986A
:205B7000A04260D041F2883001A907F0E1FA009D002852D109F018FA0199012746186068C1
:205B9000019B41464FF00052FAF74EFF00282BD00DF122000DF1230102AA05F04DFBB0B94C
:205BB0009DF8220003A907F091F838B9029A08F0EBFE00281CBF029D474615D10299684626
:205BD00007F05EFC60684FF0005109F0E9F90198B0F1FF3FD3D00028D1D009F0E5F9301A2C
:205BF00002D00199814216D208F0BCF9009E08F099FA083401463EB1324652F80C0C40B963
:205C1000206842F80C0C2660084608F0DFFB384603E00246F1E70190B1E720B92DB1284625
:205C300008F02AFF01E001F09CF9DDF81A0000680AB0BDE8F04104B07047C04680150020BF
:205C500070B5424C424B2568186855F8183F00224FF0FF3198473F483F4A416B3F4C88689C
:205C70003F4D41791170002609F096F93D4809F08FF909F089F93C48026800215171A0238A
:205C900001680722CB804A72032103681972002201684A7700230268D3760021036883F818
:205CB0005C10012201680A770123026882F85D300021006880F85E100EE06068F1B24FF4BB
:205CD000C072514342185379012B04D1F0B208F05DFC09F055F9761C2978F0B28842ECD32F
:205CF00009F04AF92148224A0178224C117006F0D1FC09F03DF92049204B0020087000229B
:205D10001F491A7001201F4B08701A701E491F4B08701A701B201E491E4B0A701A804FF4BF
:205D3000A4721D491D4B08801A80FB201C491D4A088040F648001C491080FB230B80208022
:205D500009F012F919490020087070BDF04E0020EC4E0020F8030100714F0020684E00209E
:205D70007B4F0020CC470020104F00206D4F00207A4F00204E4F0020734F0020744F002030
:205D9000754F0020764F0020774F0020784F0020794F0020524F0020444F0020464F00204C
:205DB000484F00204A4F00204C4F00206F4F002053480178042900D870472DE9F84F891FF5
:205DD0002FD0491E012900F29080DFF838A19AF80200FF2825D008F0D9FB83460BF16C07BD
:205DF000786809F0BDF8804698F80400032818D1D8F80800047814F0030404D17868BDE8DE
:205E1000F24F09F0A9B84578032C00F102090BF20F160BD035B1387820B93D217170012023
:205E300030706AE038490A78012A66D09BF8941059B32D1FEDB24B462A462146584609F0D7
:205E500087F840B93D207070012131702F48BDE8F24F09F079B82E480168884706469BF8A6
:205E70000610DAF804204FF4C07041435018002280F839210BF59A7001688079490805F001
:205E900053F824490A68304690470020032CC8F8080016D0204841690878820707D5C007C0
:205EB0004CBF03200020401919F8000000E08120387223469AF802002A46494609F040F8C2
:205ED0000AE00F480178082903D04946584604F025FF484605F00EFF786809F03DF841468A
:205EF0005846BDE8F44F09F027B8002008F0C6F8BDE8F24F862009F0BBB8BDE8F18F00BF82
:205F10006F4F0020684E0020794F0020AC4500204015002044150020F80301002DE9FF4184
:205F300004466668A7680D4608F0E8FD3178012903D1FAF775FD00208EE001213170FAF7AE
:205F50006FFD287870706878B07068687060A868B060E868F06028693061287D3075687D94
:205F70007075A87DB075A869B061287F3077687F7077A87F4FF0000843461D4686F8285153
:205F9000B07786F82951C6F82080336375627563B562B56386F82C5086F82D50786802F039
:205FB000C5FA204603F086F9204603F0CFF960B9386807F021FE786802F0A0F908F09EFD4C
:205FD0003570FAF72DFD2C4645E0684608F074FB0094387B224A0190B9686B4606F17C00BC
:205FF00006F0A2FA684608F09FFB00941D4938696A46029006F1980006F010FBB07830B941
:2060100006F1CC00294607F0A9FA17483061707830B906F1E800294607F0A0FA1348F06059
:20603000684608F0E7FC01958DF800501049029406F582700A226B4605F0ACFCB969FA6981
:2060500006F13C0008F0FCFA0A4A06F168000421234607F0C7FB20460090BDE8FF81C046F4
:20607000D9610000A7B200006DEA000065EA000005BF000029E80000F0B5514C20780D46D5
:20609000E90BADF11C0DC90372D1A80860D2E069216A6A080ED2E80828BF85F0040580F059
:2060B0008C80680904D304F065F985F0100584E0002083E0868861B904F11600414A00906B
:2060D0004FF6FF710223012008F032FF0146216221B304A800900027019702230293FF2218
:2060F0000392E28A30460DF11203FEF79BF858B99DF813009DF81220216A12EB002204D080
:206110004989304606F06EF8216AE28A08463B464FF6FF7108F084FF01462162A0690029D9
:2061300018BF85F001051AD168B143685BB1E0698088012100229847A069E7694368B8888A
:2061500003210022984707F08BFF85F0010534E000200146FEF740FC18B185F002050121FB
:2061700002E0022185F00205207802F067F824E003F0FAFA071C1ED038780126B03811D009
:20619000401E02D01F3808D011E0387978B97888F9883A8906F026F80AE03846FEF73AFAD4
:2061B000064604E0397907F10800FAF741FC16B1384607F0D1FD85F40045A8B207B0F0BD39
:2061D0009C1100205C0001002DE9F84F8046D8F808603068D8F80450076CDFF830B1476498
:2061F000AB6B6A6C286C17F4F06F1946A0EB020934D1F8091ED2780974D3B1B196F82120C1
:206210005846801D845C601E814294BF1C1C641E4046214607F0F0F8A86B001BA86361D1CE
:2062300005F19800012108F083FC4046494607F08DFB57E00029F8D0404607F0DDF895F88C
:206250002D10A86311B900284CD101E00020A86305F19800012108F06BFC43E0F80A20D2A5
:206270004FF0000A544602E0AB6B5B1EAB6393B14046012107F0C0F83068446814F00F04B6
:20629000C0F804A0F0D0286B401E2863686B401E6863A86BE8B905F19800012108F048FCBA
:2062B00013E0306844680022202904F00F044260CCBF4FF0200A9A464046514607F09CF807
:2062D000CAF120008145C8BF81464946404607F03DFBEC77404605F033FD726A12B1404648
:2062F00021469047B8090FD3A96A69B10F46404607F099F8A86238B996F820205946895CD0
:206310004046C91905F036FCBDE8F88F68FF00002DE9FC4705466E68D5F8088037780FB10D
:20633000B76B1FB14FF0FF30BDE8FC8731630024F477171C74631BD006F13C0908F0DEFBA0
:2063500082466946484606F00EF900281ED45046FAF766FB9DF80000316B0870306B736B07
:206370007F1E00F10100306303F101007063E5D17078726B316B0128A1EB0201316303D1EC
:20639000F36828469847726B144659E0B763D8F80010086B40F400700863D8F80010886B86
:2063B00040F4FA6088635046FAF73AFB06F5947007F012FD707806F5947768BB08F09EFBF1
:2063D00096F82D1069B1716B59B1B16B49B1B463FAF726FB06F5947007F0EEFC706BBDE843
:2063F000FC87FAF71DFB716806F1E805284608F030F90028F2D0B4632846214608F029F9C5
:206410000028EBD0384607F0D7FC1027716B306BF777401A3063E1E708F070FB96F82D1042
:2064300061B1716B51B1B16B41B1B463FAF7F8FA06F19800012108F07BFB01E0FAF7F0FA79
:206450002046BDE8FC872DE9FC4191EA03084CBF4FF000484FF000084FEA03354FEA1535F8
:2064700056006D414FEA43075FEA575711BF45F4001500210020BDE8FC814FF4E06E1EF16D
:20649000FF0E77456FD04FEA01334FEA133342005B414FEA4104640D11BF43F400130021F0
:2064B0000020BDE8FC8174455DD0E41B002100205FF0360EAB4200D1B24205D3404149413C
:2064D000921B63EB050301E040414941BEF1010E05D053EA020702D052005B41EAE7BEF1A4
:2064F000200F09D2BEF1160F0CD3CEF1200720FA07F100FA0EF00FE0AEF1200E00FA0EF12A
:20651000002009E001FA0EF1CEF1200720FA07F741EA070100FA0EF011F4001F02D1400008
:206530004941641E401C51F1000111F4800F1ABF641C21F4800121F400114FF44077FF37C7
:20655000E419DEBF00210020BDE8FC8107F58067BC4208D249084FEA300041EA045141EA0E
:206570000801BDE8FC810020FF214FEAC101C91D4FEA015141EA0801BDE8FC812DE9FF4782
:20659000484C94F8E700002876D13E4E01273C48F57C84F8E770736884F8E6500068C4F848
:2065B0001031C0F3801084F8E800684608F022FA002504F10C0001956B468DF80050324964
:2065D00002952A4605F0E6F9304904F130006B462A4605F0DFF92E4904F154006B4681460C
:2065F0002A4605F0D7F9B16838468847DFF8B0802848327D08F104030078284E1868C0F3A9
:20661000815A22B1BAF1030F04D184F8E170BAF1030F17D0BAF1020F14D0BAF1010F0ED080
:20663000022006F0B5FD1C480068016804208847012804D030683221B1FBF0F10DE006F000
:20665000A1F812E0022006F0A3FDBAF1030F0CBF4FF47A7142F210713068B1FBF0F14846C9
:2066700008F042FA484608F041FA40460068C00802D2284606F08CFD00200090BDE8FF87C3
:20669000141009407C020100E39A0000358D000079A800003D250020E001001028250020BE
:2066B000B03F0050241400202DE9F84F5FEA00091C46924600917DD0081C7BD0BAF1000F43
:2066D00078D0002C7BD0206A002873D03F4D616A281D006800296DD0A16A08F07DFC40B21E
:2066F000002808BF6FF002055FD084F82C002078618800EB400009180C3188B2216A8847C0
:206710003149AB46086030B9DBF8040008F060FC4FF0FF3549E08846668865882178D8F8D4
:2067300000008F192D183F1806EB41063618204605F02CFB2078C01C8010286020783F1D7D
:20675000C01C8010386020780836C01C8010306022784946281D02F05FFD28463A46334630
:20677000014608F0E1FB45B2227800983B1D194602F052FD22785046311D02F04DFD21787A
:206790006288D8F8000001EB41015218002103F0B7FD616AD8F800008847DBF8040008F096
